:100000000C9449000C9466000C9466000C946600F5
:100010000C9466000C9466000C9466000C946600C8
:100020000C9466000C9466000C9466000C946600B8
:100030000C9466000C9466000C9466000C948F1C63
:100040000C9466000C9466000C94590E0C94660097
:100050000C9466000C9466000C9466000C94660088
:100060000C9466000C9466000C9466000C94660078
:100070000C9466000C9466000C9466000F03050453
:10008000EF04BD054006D0066A079008C309000BBF
:10009000B60B11241FBECFEFD8E0DEBFCDBF11E0FD
:1000A000A0E0B1E0EAE4FFE302C005900D92A03BBE
:1000B000B107D9F721E0A0EBB1E001C01D92A73F45
:1000C000B207E1F70E9458120C94A31F0C94000091
:1000D000CF93DF93CDB7DEB763E083E00E94E50006
:1000E0009C018BEF90E0821B930B9093B101809366
:1000F000B0010000DF91CF910895CF93DF93CDB78A
:10010000DEB78BE790E02BE730E0F9012081206239
:10011000FC0120838CE790E020E4FC0120838AE747
:1001200090E02AE730E0F90120812368FC01208378
:100130008AE790E02AE730E0F90120812064FC01A1
:10014000208300008AE790E0FC018081882F90E006
:1001500080749927892BB1F788E790E0FC018081B2
:1001600091810000DF91CF910895CF93DF931F928B
:10017000CDB7DEB789838CE790E02CE730E0F9015A
:100180002081322F307F29812F70232BFC01208387
:100190008AE790E02AE730E0F90120812064FC0141
:1001A000208300008AE790E0FC018081882F90E0A6
:1001B00080749927892BB1F788E790E0FC01808152
:1001C00091810F90DF91CF910895CF93DF93CDB7B9
:1001D000DEB727970FB6F894DEBF0FBECDBF8E8374
:1001E0006F8319821A821B821C821D8215C08E8128
:1001F0000E94B500CC01A0E0B0E029813A814B819A
:100200005C81820F931FA41FB51F89839A83AB83E0
:10021000BC838D818F5F8D839D818F81981738F38B
:100220008F81282F30E040E050E089819A81AB81B6
:10023000BC81BC01CD010E94611FDA01C901279672
:100240000FB6F894DEBF0FBECDBFDF91CF910895FA
:10025000CF93DF93CDB7DEB70E94680065E088E0FA
:100260000E94E5009C018091B0019091B101820F44
:10027000931FDF91CF910895CF93DF9300D000D0EB
:10028000CDB7DEB70E94680065E089E00E94E50016
:100290009A83898389819A819C838B838091B00121
:1002A0009091B1012B813C81820F931F9C838B83A2
:1002B0008B819C810F900F900F900F90DF91CF91C9
:1002C0000895CF93DF93CDB7DEB70E94680065E055
:1002D00085E00E94E5009C018091B0019091B10100
:1002E000820F931FDF91CF910895CF93DF9300D0BA
:1002F0001F92CDB7DEB719821DC08DEE90E0298127
:100300002295207FFC0120838EEE90E09B838A83E0
:1003100009C08A819B81FC0110828A819B810196A0
:100320009B838A838A819B81883F910590F3898191
:100330008F5F89838981863000F300000F900F90D2
:100340000F90DF91CF910895CF93DF9300D0CDB779
:10035000DEB78DEE90E0FC0180818A8319821BC09C
:100360008DEE90E029812295207FFC0120838FEE85
:1003700090E0FC018081882F90E0807C9927892B78
:1003800039F48DEE90E02A81FC01208389810CC034
:1003900089818F5F89838981863010F38DEE90E0AB
:1003A0002A81FC0120838FEF0F900F90DF91CF9176
:1003B0000895CF93DF9300D0CDB7DEB78FEE90E0F6
:1003C000FC018081882F90E0807C9927892B11F493
:1003D0008FEF1CC08EEE90E0FC01808189838981C3
:1003E000807E8A838A81803231F08A81803419F05C
:1003F0008A81803A11F48A8109C089818F718A8348
:100400008A81882311F08A8101C080E00F900F90CB
:10041000DF91CF910895CF93DF9300D01F92CDB796
:10042000DEB79B838A83198210C08981882F90E070
:100430002A813B81820F931F2AEF30E0F90120814E
:10044000FC01208389818F5F89838981282F30E097
:100450008FEE90E0FC018081882F90E08F709927CB
:100460002817390714F300000F900F900F90DF91B9
:10047000CF910895CF93DF931F92CDB7DEB78983D5
:1004800088ED90E021E0FC01208382EE90E026E000
:10049000FC01208383EE90E024E0FC01208384EEC5
:1004A00090E023E1FC01208381E00F90DF91CF9168
:1004B0000895CF93DF931F92CDB7DEB789838981EB
:1004C0000E943A02882311F480E026C00E94750140
:1004D0008EED90E021E0FC0120838BED90E020EA9E
:1004E000FC01208387EF90E0FC01108286EF90E012
:1004F000FC01108285EF90E0FC01108284EF90E017
:10050000FC01108288ED90E028ED30E0F9012081B7
:100510002260FC01208381E00F90DF91CF9108954C
:10052000CF93DF93CDB7DEB72A970FB6F894DEBF2F
:100530000FBECDBF9A87898789859A85FC01818105
:100540008C3039F589859A85FC0181858036D9F40E
:100550008DEE90E029853A85F90120812295207F52
:10056000FC0120838FEE90E02FEE30E0F901208136
:100570002F73FC0120838EEE90E0FC0110828985B0
:100580009A85FC01108289859A85FC0111860C945C
:100590001C0D0E94A4018C838C818F3F11F40C945C
:1005A000150D89859A8520E6FC01218789859A8524
:1005B0002C81FC0120838DEE90E02C812295207F00
:1005C000FC0120838EEE90E09B838A8309C08A81A0
:1005D0009B81FC0110828A819B8101969B838A8387
:1005E0008A819B81883F910590F389859A85FC01DA
:1005F0008181882F90E0092E000CAA0BBB0B41E0F3
:1006000050E02AE030E0841B950B2817390710F4DE
:100610000C940F0D825C9F4FFC010C94831F898505
:100620009A85FC018385882309F469C083EF90E0F3
:1006300029853A852E5F3F4F2D5F3F4FF90120817D
:10064000422F440F440F440F29853A852E5F3F4FB8
:100650002E5F3F4FF9012081229526952770240FA8
:10066000FC01208382EF90E029853A852E5F3F4F81
:100670002E5F3F4FF9012081422F440F440F440F5A
:1006800029853A852E5F3F4F2F5F3F4FF90120812B
:10069000229526952770240FFC01208381EF90E09E
:1006A00029853A852E5F3F4F2F5F3F4FF90120810B
:1006B000422F440F440F440F29853A852E5F3F4F48
:1006C000F9012081229526952770240FFC012083B3
:1006D00080EF90E029853A852E5F3F4FF901208118
:1006E000220F220F220FFC0120838FEE90E02FEECD
:1006F00030E0F90120812061FC01208330C083EFCC
:1007000090E029853A852E5F3F4F2F5F3F4FF901DB
:100710002081422F4295440F407E29853A852E5FE5
:100720003F4FF9012081269526952695240FFC013F
:10073000208382EF90E029853A852E5F3F4FF901B3
:1007400020812295220F207EFC0120838FEE90E0F5
:100750002FEE30E0F90120812F7EFC0120831982E9
:1007600013C08AEF90E029853A85F90147815085C9
:100770002981222F30E0240F351FF9012081FC014F
:10078000208389818F5F898389859A85FC01968181
:100790008981891730F389859A85FC0182858823B0
:1007A00051F080EF90E020EF30E0F90120812460EB
:1007B000FC01208309C080EF90E020EF30E0F901D8
:1007C00020812B7FFC0120838FEE90E02FEE30E024
:1007D000F901408129853A85F9012681242BFC0104
:1007E00020838FEE90E02FEE30E0F90120812F730F
:1007F000FC0120838FEE90E02FEE30E0F9012081A4
:100800002064FC0120830C941C0D89859A85FC01D1
:100810008385882309F469C083EF90E029853A85B0
:100820002E5F3F4F2D5F3F4FF9012081422F440F34
:10083000440F440F29853A852E5F3F4F2E5F3F4F6F
:10084000F9012081229526952770240FFC01208331
:1008500082EF90E029853A852E5F3F4F2E5F3F4F14
:10086000F9012081422F440F440F440F29853A8516
:100870002E5F3F4F2F5F3F4FF90120812295269534
:100880002770240FFC01208381EF90E029853A85B1
:100890002E5F3F4F2F5F3F4FF9012081422F440FC2
:1008A000440F440F29853A852E5F3F4FF90120817F
:1008B000229526952770240FFC01208380EF90E07D
:1008C00029853A852E5F3F4FF9012081220F220FA3
:1008D000220FFC0120838FEE90E02FEE30E0F90133
:1008E00020812061FC01208330C083EF90E02985C6
:1008F0003A852E5F3F4F2F5F3F4FF9012081422FF6
:100900004295440F407E29853A852E5F3F4FF9017D
:100910002081269526952695240FFC01208382EFC1
:1009200090E029853A852E5F3F4FF901208122957D
:10093000220F207EFC0120838FEE90E02FEE30E02E
:10094000F90120812F7EFC012083198213C08AEFD8
:1009500090E029853A85F901478150852981222F28
:1009600030E0240F351FF9012081FC0120838981AB
:100970008F5F898389859A85FC0196818981891792
:1009800030F389859A85FC01128680EF90E020EF94
:1009900030E0F90120812B7FFC0120838FEE90E075
:1009A0002FEE30E0F901408129853A85F901268151
:1009B000242BFC0120838FEE90E02FEE30E0F90134
:1009C00020812F73FC0120838FEE90E02FEE30E02A
:1009D000F90120812064FC0120830C941C0D898581
:1009E0009A85FC018385882309F469C083EF90E030
:1009F00029853A852E5F3F4F2D5F3F4FF9012081BA
:100A0000422F440F440F440F29853A852E5F3F4FF4
:100A10002E5F3F4FF9012081229526952770240FE4
:100A2000FC01208382EF90E029853A852E5F3F4FBD
:100A30002E5F3F4FF9012081422F440F440F440F96
:100A400029853A852E5F3F4F2F5F3F4FF901208167
:100A5000229526952770240FFC01208381EF90E0DA
:100A600029853A852E5F3F4F2F5F3F4FF901208147
:100A7000422F440F440F440F29853A852E5F3F4F84
:100A8000F9012081229526952770240FFC012083EF
:100A900080EF90E029853A852E5F3F4FF901208154
:100AA000220F220F220FFC0120838FEE90E02FEE09
:100AB00030E0F90120812061FC01208330C083EF08
:100AC00090E029853A852E5F3F4F2F5F3F4FF90118
:100AD0002081422F4295440F407E29853A852E5F22
:100AE0003F4FF9012081269526952695240FFC017C
:100AF000208382EF90E029853A852E5F3F4FF901F0
:100B000020812295220F207EFC0120838FEE90E031
:100B10002FEE30E0F90120812F7EFC0120838985B2
:100B20009A8521E0FC01228780EF90E020EF30E001
:100B3000F90120812460FC0120838FEE90E02FEEEC
:100B400030E0F901408129853A85F9012681242B7D
:100B5000FC0120838FEE90E02FEE30E0F901208140
:100B60002F73FC0120838FEE90E02FEE30E0F9012F
:100B700020812064FC0120835FC71D821E821F82AA
:100B8000188627EF30E0CE0105960396FC018081A0
:100B9000482F440F440F440FCE0105960296FC01E6
:100BA0008081829586958770840FF901808326EF76
:100BB00030E0CE0105960296FC018081482F440F5B
:100BC000440F440FCE0105960196FC018081829569
:100BD00086958770840FF901808325EF30E0CE0180
:100BE00005960196FC018081482F440F440F440F65
:100BF000CE010596FC018081829586958770840FD1
:100C0000F901808384EF90E09E012B5F3F4FF90153
:100C10002081220F220F220FFC0120838FEE90E013
:100C20002FEE30E0F901408129853A85F9012681CE
:100C3000242BFC01208384EF90E024EF30E0F901C5
:100C400020812B7FFC01208384EF90E024EF30E0B3
:100C5000F90120812E7FFC0120838FEE90E02FEEA2
:100C600030E0F90120812F73FC0120838FEE90E0AA
:100C70002FEE30E0F90120812068FC012083DCC6E2
:100C80001D821E821F82188627EF30E0CE01059656
:100C90000396FC018081482F440F440F440FCE017E
:100CA00005960296FC018081829586958770840F57
:100CB000F901808326EF30E0CE0105960296FC0113
:100CC0008081482F440F440F440FCE0105960196B2
:100CD000FC018081829586958770840FF90180835D
:100CE00025EF30E0CE0105960196FC018081482F6A
:100CF000440F440F440FCE010596FC01808182957C
:100D000086958770840FF901808384EF90E09E01BF
:100D10002B5F3F4FF9012081220F220F220FFC0190
:100D200020838FEE90E02FEE30E0F901408129859D
:100D30003A85F9012681242BFC01208389859A8537
:100D4000FC01128684EF90E024EF30E0F90120816D
:100D50002460FC01208380EF90E020EF30E0F90177
:100D600020812B7FFC01208384EF90E024EF30E092
:100D7000F90120812E7FFC0120838FEE90E02FEE81
:100D800030E0F90120812F73FC0120838FEE90E089
:100D90002FEE30E0F90120812068FC0120834CC651
:100DA0001D821E821F82188627EF30E0CE01059635
:100DB0000396FC018081482F440F440F440FCE015D
:100DC00005960296FC018081829586958770840F36
:100DD000F901808326EF30E0CE0105960296FC01F2
:100DE0008081482F440F440F440FCE010596019691
:100DF000FC018081829586958770840FF90180833C
:100E000025EF30E0CE0105960196FC018081482F48
:100E1000440F440F440FCE010596FC01808182955A
:100E200086958770840FF901808384EF90E09E019E
:100E30002B5F3F4FF9012081220F220F220FFC016F
:100E400020838FEE90E02FEE30E0F901408129857C
:100E50003A85F9012681242BFC01208389859A8516
:100E600021E0FC01228784EF90E024EF30E0F901DB
:100E700020812460FC01208380EF90E020EF30E0AF
:100E8000F90120812460FC0120838FEE90E02FEE99
:100E900030E0F90120812F7DFC01208384EF90E078
:100EA00024EF30E0F90120812E7FFC0120838FEEBA
:100EB00090E02FEE30E0F90120812F73FC012083B8
:100EC0008FEE90E02FEE30E0F90120812068FC01E8
:100ED0002083B2C589859A85FC018385882309F41E
:100EE00069C083EF90E029853A852E5F3F4F2D5FE3
:100EF0003F4FF9012081422F440F440F440F2985B1
:100F00003A852E5F3F4F2E5F3F4FF901208122959A
:100F100026952770240FFC01208382EF90E029851D
:100F20003A852E5F3F4F2E5F3F4FF9012081422FC0
:100F3000440F440F440F29853A852E5F3F4F2F5FA2
:100F40003F4FF9012081229526952770240FFC013F
:100F5000208381EF90E029853A852E5F3F4F2F5FF8
:100F60003F4FF9012081422F440F440F440F298540
:100F70003A852E5F3F4FF9012081229526952770F3
:100F8000240FFC01208380EF90E029853A852E5FB5
:100F90003F4FF9012081220F220F220FFC012083F5
:100FA0008FEE90E02FEE30E0F90120812061FC010E
:100FB000208330C083EF90E029853A852E5F3F4F34
:100FC0002F5F3F4FF9012081422F4295440F407E11
:100FD00029853A852E5F3F4FF90120812695269578
:100FE0002695240FFC01208382EF90E029853A8525
:100FF0002E5F3F4FF90120812295220F207EFC01B8
:1010000020838FEE90E02FEE30E0F90120812F7EDB
:10101000FC0120838FEF9FEFDC018D839E83AF83E4
:10102000B88727EF30E0CE0105960396FC0180815A
:10103000482F440F440F440FCE0105960296FC0141
:101040008081829586958770840FF901808326EFD1
:1010500030E0CE0105960296FC018081482F440FB6
:10106000440F440FCE0105960196FC0180818295C4
:1010700086958770840FF901808325EF30E0CE01DB
:1010800005960196FC018081482F440F440F440FC0
:10109000CE010596FC018081829586958770840F2C
:1010A000F901808384EF90E09E012B5F3F4FF901AF
:1010B0002081220F220F220FFC0120838FEE90E06F
:1010C0002FEE30E0F901408129853A85F90126812A
:1010D000242BFC01208384EF90E024EF30E0F90121
:1010E00020812B7FFC01208384EF90E024EF30E00F
:1010F000F90120812160FC0120838FEE90E02FEE2A
:1011000030E0F90120812F73FC0120838FEE90E005
:101110002FEE30E0F90120812068FC0120838CC48F
:1011200089859A85FC018385882309F469C083EF4A
:1011300090E029853A852E5F3F4F2D5F3F4FF901A3
:101140002081422F440F440F440F29853A852E5F9A
:101150003F4F2E5F3F4FF901208122952695277042
:10116000240FFC01208382EF90E029853A852E5FD1
:101170003F4F2E5F3F4FF9012081422F440F440F14
:10118000440F29853A852E5F3F4F2F5F3F4FF9016E
:101190002081229526952770240FFC01208381EF62
:1011A00090E029853A852E5F3F4F2F5F3F4FF90131
:1011B0002081422F440F440F440F29853A852E5F2A
:1011C0003F4FF9012081229526952770240FFC01BD
:1011D000208380EF90E029853A852E5F3F4FF9010B
:1011E0002081220F220F220FFC0120838FEE90E03E
:1011F0002FEE30E0F90120812061FC01208330C016
:1012000083EF90E029853A852E5F3F4F2F5F3F4F58
:10121000F9012081422F4295440F407E29853A856D
:101220002E5F3F4FF9012081269526952695240FA4
:10123000FC01208382EF90E029853A852E5F3F4FA5
:10124000F90120812295220F207EFC0120838FEE60
:1012500090E02FEE30E0F90120812F7EFC01208309
:101260008FEF9FEFDC018D839E83AF83B88727EFDD
:1012700030E0CE0105960396FC018081482F440F93
:10128000440F440FCE0105960296FC0180818295A1
:1012900086958770840FF901808326EF30E0CE01B8
:1012A00005960296FC018081482F440F440F440F9D
:1012B000CE0105960196FC01808182958695877006
:1012C000840FF901808325EF30E0CE010596019669
:1012D000FC018081482F440F440F440FCE01059636
:1012E000FC018081829586958770840FF901808347
:1012F00084EF90E09E012B5F3F4FF9012081220F88
:10130000220F220FFC0120838FEE90E02FEE30E0C1
:10131000F901408129853A85F9012681242BFC01B8
:10132000208389859A85FC01128684EF90E024EF62
:1013300030E0F90120812460FC01208380EF90E0FF
:1013400020EF30E0F90120812B7FFC01208384EF26
:1013500090E024EF30E0F90120812160FC0120833E
:101360008FEE90E02FEE30E0F90120812F73FC0129
:1013700020838FEE90E02FEE30E0F901208120688D
:10138000FC01208359C389859A85FC0183858823C4
:1013900009F469C083EF90E029853A852E5F3F4FBD
:1013A0002D5F3F4FF9012081422F440F440F440F1E
:1013B00029853A852E5F3F4F2E5F3F4FF9012081EF
:1013C000229526952770240FFC01208382EF90E060
:1013D00029853A852E5F3F4F2E5F3F4FF9012081CF
:1013E000422F440F440F440F29853A852E5F3F4F0B
:1013F0002F5F3F4FF9012081229526952770240FFA
:10140000FC01208381EF90E029853A852E5F3F4FD4
:101410002F5F3F4FF9012081422F440F440F440FAB
:1014200029853A852E5F3F4FF90120812295269527
:101430002770240FFC01208380EF90E029853A85F6
:101440002E5F3F4FF9012081220F220F220FFC0156
:1014500020838FEE90E02FEE30E0F90120812061B3
:10146000FC01208330C083EF90E029853A852E5F10
:101470003F4F2F5F3F4FF9012081422F4295440F8C
:10148000407E29853A852E5F3F4FF90120812695C0
:1014900026952695240FFC01208382EF90E0298574
:1014A0003A852E5F3F4FF90120812295220F207E41
:1014B000FC0120838FEE90E02FEE30E0F9012081D7
:1014C0002F7EFC0120838FEF9FEFDC018D839E83B5
:1014D000AF83B88727EF30E0CE0105960396FC0175
:1014E0008081482F440F440F440FCE010596029689
:1014F000FC018081829586958770840FF901808335
:1015000026EF30E0CE0105960296FC018081482F3F
:10151000440F440F440FCE0105960196FC018081D3
:10152000829586958770840FF901808325EF30E0DE
:10153000CE0105960196FC018081482F440F440F8F
:10154000440FCE010596FC018081829586958770B7
:10155000840FF901808384EF90E09E012B5F3F4F61
:10156000F9012081220F220F220FFC0120838FEE30
:1015700090E02FEE30E0F901408129853A85F901AC
:101580002681242BFC01208389859A8521E0FC019A
:10159000228784EF90E024EF30E0F901208124607D
:1015A000FC01208380EF90E020EF30E0F901208102
:1015B0002460FC0120838FEE90E02FEE30E0F901F3
:1015C00020812F7DFC01208384EF90E024EF30E028
:1015D000F90120812160FC0120838FEE90E02FEE45
:1015E00030E0F90120812F73FC0120838FEE90E021
:1015F0002FEE30E0F90120812068FC0120831CC21D
:10160000198213C08AEF90E029853A85F901478154
:1016100050852981222F30E0240F351FF9012081C8
:10162000FC01208389818F5F898389859A85FC01EC
:1016300096818981891730F31D821E821F82188648
:1016400027EF30E0CE0105960396FC018081482FFC
:10165000440F440F440FCE0105960296FC01808191
:10166000829586958770840FF901808326EF30E09C
:10167000CE0105960296FC018081482F440F440F4D
:10168000440FCE0105960196FC01808182958695D6
:101690008770840FF901808325EF30E0CE01059635
:1016A0000196FC018081482F440F440F440FCE0166
:1016B0000596FC018081829586958770840FF901DB
:1016C000808384EF90E09E012B5F3F4FF9012081E2
:1016D000220F220F220FFC0120838FEE90E02FEECD
:1016E00030E0F901408129853A85F9012681242BD2
:1016F000FC01208389859A8521E0FC01228784EF03
:1017000090E024EF30E0F90120812460FC01208387
:1017100080EF90E020EF30E0F90120812460FC01AF
:1017200020838FEE90E02FEE30E0F90120812062DF
:10173000FC01208384EF90E024EF30E0F901208168
:101740002E7FFC0120838FEE90E02FEE30E0F90138
:1017500020812F73FC0120838FEE90E02FEE30E08C
:10176000F90120812068FC01208366C189859A8562
:10177000FC018385882309F469C083EF90E0298503
:101780003A852E5F3F4F2D5F3F4FF9012081422F59
:10179000440F440F440F29853A852E5F3F4F2E5F3B
:1017A0003F4FF9012081229526952770240FFC01D7
:1017B000208382EF90E029853A852E5F3F4F2E5F90
:1017C0003F4FF9012081422F440F440F440F2985D8
:1017D0003A852E5F3F4F2F5F3F4FF90120812295C1
:1017E00026952770240FFC01208381EF90E0298546
:1017F0003A852E5F3F4F2F5F3F4FF9012081422FE7
:10180000440F440F440F29853A852E5F3F4FF9015D
:101810002081229526952770240FFC01208380EFDC
:1018200090E029853A852E5F3F4FF9012081220FF4
:10183000220F220FFC0120838FEE90E02FEE30E08C
:10184000F90120812061FC01208330C083EF90E00A
:1018500029853A852E5F3F4F2F5F3F4FF901208149
:10186000422F4295440F407E29853A852E5F3F4F97
:10187000F9012081269526952695240FFC012083C9
:1018800082EF90E029853A852E5F3F4FF901208154
:101890002295220F207EFC0120838FEE90E02FEE18
:1018A00030E0F90120812F7EFC012083198213C0D2
:1018B0008AEF90E029853A85F90147815085298191
:1018C000222F30E0240F351FF9012081FC012083F5
:1018D00089818F5F898389859A85FC0196818981B9
:1018E000891730F38FEF9FEFDC018D839E83AF83E9
:1018F000B88727EF30E0CE0105960396FC01808182
:10190000482F440F440F440FCE0105960296FC0168
:101910008081829586958770840FF901808326EFF8
:1019200030E0CE0105960296FC018081482F440FDD
:10193000440F440FCE0105960196FC0180818295EB
:1019400086958770840FF901808325EF30E0CE0102
:1019500005960196FC018081482F440F440F440FE7
:10196000CE010596FC018081829586958770840F53
:10197000F901808384EF90E09E012B5F3F4FF901D6
:101980002081220F220F220FFC0120838FEE90E096
:101990002FEE30E0F901408129853A85F901268151
:1019A000242BFC01208389859A8521E0FC01228774
:1019B00084EF90E024EF30E0F90120812460FC0105
:1019C000208380EF90E020EF30E0F9012081246057
:1019D000FC0120838FEE90E02FEE30E0F9012081B2
:1019E0002062FC01208384EF90E024EF30E0F901D5
:1019F00020812160FC0120838FEE90E02FEE30E00B
:101A0000F90120812F73FC0120838FEE90E02FEEEF
:101A100030E0F90120812068FC0120830DC0898518
:101A20009A85FC011186000007C089859A852FE1FF
:101A3000FC0121878FEF01C080E02A960FB6F89451
:101A4000DEBF0FBECDBFDF91CF910895CF93DF935F
:101A500000D000D0CDB7DEB79C838B838B819C8177
:101A6000FC0181858A838A81882331F08A818F31C4
:101A700019F08A818F3F11F482E014C18DEE90E05D
:101A80002B813C81F90120812295207FFC0120835C
:101A90000E94D9018A838A81882F90E08032910543
:101AA00089F0813291051CF4892B49F0E5C080341E
:101AB000910509F4CDC0803A910521F0DDC081E0A7
:101AC0008983EFC08FEE90E0FC018081282F2F707A
:101AD0008B819C81FC0126838B819C81FC01878109
:101AE00090850E940B0280EF90E0FC018081882F9E
:101AF00090E084709927959587959595879521E035
:101B0000892B09F420E08B819C81FC0122878FEED8
:101B100090E0FC018081882F90E080719927959555
:101B20008795959587959595879595958795892B13
:101B300009F454C08B819C8121E0FC0123878B81B7
:101B40009C810296039623EF30E0F90120812695CF
:101B500026952695FC0120838B819C810296029616
:101B600022EF30E0F9012081422F469546954695B7
:101B700023EF30E0F90120812295220F207E240FEF
:101B8000FC0120838B819C810296019621EF30E03D
:101B9000F9012081422F46954695469522EF30E087
:101BA000F90120812295220F207E240FFC01208341
:101BB0008B819C81029620EF30E0F9012081422F39
:101BC00046954695469521EF30E0F9012081229512
:101BD000220F207E240FFC01208326C08B819C8154
:101BE000FC0113868B819C810296019623EF30E0E5
:101BF000F9012081229526952770FC0120838B8195
:101C00009C81029622EF30E0F9012081422F42951B
:101C10004695477023EF30E0F9012081220F220F13
:101C2000220F240FFC0120838B819C812A81FC01DF
:101C300021878FEE90E02FEE30E0F90120812F73A5
:101C4000FC0120838EEE90E0FC011082198229C0F5
:101C50008B819C812A81FC0121878FEE90E02FEE01
:101C600030E0F90120812F73FC0120838EEE90E09B
:101C7000FC011082198215C08B819C812A81FC0194
:101C800021878FEE90E02FEE30E0F90120812F7355
:101C9000FC0120838EEE90E0FC01108282E08983BB
:101CA000000089810F900F900F900F90DF91CF91DE
:101CB00008951F920F9200905F000F9211248F934E
:101CC0009F93CF93DF9300D0CDB7DEB78AE090E04B
:101CD0009A83898389819A8101969A8389830000F6
:101CE0000F900F90DF91CF919F918F910F90009265
:101CF0005F000F901F901895CF93DF9300D0CDB762
:101D0000DEB79A83898389810F900F90DF91CF91FD
:101D10000895CF93DF9300D0CDB7DEB79A83898340
:101D200089819A81892F99270F900F90DF91CF9108
:101D30000895CF93DF931F92CDB7DEB78983898152
:101D40000E94590200000F90DF91CF910895EF9209
:101D5000FF920F931F93CF93DF93CDB7DEB76497B6
:101D60000FB6F894DEBF0FBECDBF0DB71EB78DB74F
:101D70009EB77C0180E891E0A0E0B0E089879A8777
:101D8000AB87BC8781E08A8B198A88E08D8782E0E7
:101D900088872D85822F90E001979A838983822FEF
:101DA00090E02DB73EB7281B390B0FB6F8943EBF15
:101DB0000FBE2DBF8DB79EB701969C838B838DA5DB
:101DC0009EA5880F991F9C01220F331F220F331FDE
:101DD000820F931F9E838D838D819E810E94890E29
:101DE000282F8B819C81FC0120838D819E810E9404
:101DF0007C0E282F8B819C81FC0121838FA598A9C3
:101E00000E94890E282F8B819C81FC0122838FA543
:101E100098A90E947C0E282F8B819C81FC01238332
:101E20008BA99CA996958795969587959C01ABE77C
:101E3000B4E10E94891F96958795282F8B819C81FC
:101E4000FC01248389A99AA99695879596958795EB
:101E50009C01ABE7B4E10E94891F96958795282FD6
:101E60008B819C81FC01258389AD8F708F709B894C
:101E7000907F892B8B8B8B8980688B8B8B898F7D57
:101E80008B8B2B898B819C81FC01268388AD817093
:101E900081708295880F880F807C9C899F7B892B1D
:101EA0008C8B8FA98F718F719C89907E892B8C8BE5
:101EB0002C898B819C81FC0127838B819C819F874E
:101EC0008E870000CE0107960E9490028823D1F7EA
:101ED0000000CE0107960E94260D8130D1F30FB687
:101EE000F894FEBE0FBEEDBE00000FB6F8941EBF04
:101EF0000FBE0DBF64960FB6F894DEBF0FBECDBF08
:101F0000DF91CF911F910F91FF90EF900895EF9285
:101F1000FF920F931F93CF93DF93CDB7DEB76797F1
:101F20000FB6F894DEBF0FBECDBF9A8B898B7C8B2A
:101F30006B8B4D8B2E8B0F8B0DB71EB78DB79EB74E
:101F40007C0180E092E0A0E0B0E08F839887A987D1
:101F5000BA8781E0888B1F8687E08B8782E08E833B
:101F60002B85822F90E001979A838983822F90E0BE
:101F70002DB73EB7281B390B0FB6F8943EBF0FBEE6
:101F80002DBF8DB79EB701969C838B8389899A89D3
:101F90000E947C0E282F8B819C81FC0120838989E3
:101FA0009A890E94890E282F8B819C81FC012183B4
:101FB0008B899C890E947C0E282F8B819C81FC013F
:101FC00022838B899C890E94890E282F8B819C817A
:101FD000FC0123838B819C812D89FC0124838B81CF
:101FE0009C812E89FC0125838B819C812F89FC019A
:101FF00026838B819C819D878C870000CE0105966E
:102000000E9490028823D1F70000CE0105960E941D
:10201000260D8130D1F30FB6F894FEBE0FBEEDBE93
:1020200000000FB6F8941EBF0FBE0DBF67960FB627
:10203000F894DEBF0FBECDBFDF91CF911F910F91FE
:10204000FF90EF900895CF93DF9300D0CDB7DEB728
:102050009A83898389810F900F90DF91CF910895A2
:10206000CF93DF9300D0CDB7DEB79A838983898180
:102070009A81892F99270F900F90DF91CF91089522
:10208000CF93DF9300D000D0CDB7DEB79C838B8396
:1020900080E098E40E94291B9A83898389819A8130
:1020A0000E943010883231F089819A810E9430106C
:1020B0008E3259F489819A810E942310282F8B81B6
:1020C0009C81FC01208380E001C081E00F900F9093
:1020D0000F900F90DF91CF910895CF93DF9300D0B1
:1020E00000D0CDB7DEB79C838B831A82198280E043
:1020F00098E70E94291B9A83898389819A810E948B
:102100003010882F90E081709927892B11F081E0A1
:102110000AC089819A810E942310282F8B819C817B
:10212000FC01208380E00F900F900F900F90DF91C3
:10213000CF910895CF93DF9300D0CDB7DEB71A8249
:1021400019828DE996E50E94291B9A83898380E094
:102150009CE60E94291B9A83898389819A810E9427
:102160003010882F90E081709927892B11F081E041
:1021700001C080E00F900F90DF91CF910895CF9331
:10218000DF9300D0CDB7DEB71A82198288E896E5D2
:102190000E94291B9A83898389819A810E94301029
:1021A000882F90E081709927892B11F081E001C080
:1021B00080E00F900F90DF91CF910895CF93DF9340
:1021C00000D0CDB7DEB79A83898389819A81CC010B
:1021D000A0E0B0E0072E7AE0880F991FAA1FBB1F6E
:1021E0007A95D1F7702D28E833E140E050E0BC014A
:1021F000CD010E94611FDA01C9010F900F90DF919C
:10220000CF910895CF93DF93CDB7DEB780E990E00B
:1022100023E0FC01208381E990E024E130E0FC012F
:10222000318320830000DF91CF910895CF93DF9316
:10223000CDB7DEB727970FB6F894DEBF0FBECDBF80
:102240009F838E831A8219821B821D821C82209199
:102250000001309101018E819F812817390730F0EC
:1022600080911C0190911D019A83898320911A010C
:1022700030911B018E819F818217930708F45AC009
:1022800080913601909137019A83898353C08B8165
:10229000882F90E0880F991F80509F4FFC0120816C
:1022A00031818E819F812817390769F48B81882FAE
:1022B00090E0880F991F845E9E4FFC018081918180
:1022C0009A83898334C08B81882F90E0880F991F6F
:1022D00080509F4FFC01208131818E819F81821728
:1022E000930728F18B81882F90E00196880F991F22
:1022F00080509F4FFC01208131818E819F81281762
:102300003907A8F02E813F81C901880F991F880FD6
:10231000991F880F991F821B930B8C5C90419D83A2
:102320008C838C819D810E94DE109A8389838B81AE
:102330008F5F8B8389819A81892B21F48B818E30E9
:1023400008F4A5CF89819A8127960FB6F894DEBF4D
:102350000FBECDBFDF91CF910895CF93DF9300D013
:10236000CDB7DEB79A83898381E990E029813A81EC
:10237000FC013183208300000F900F90DF91CF91FB
:102380000895CF93DF9300D000D0CDB7DEB79C8304
:102390008B831A8219828B819C810E9416119A83E9
:1023A000898381E990E029813A81FC01318320838E
:1023B00000000F900F900F900F90DF91CF91089534
:1023C000CF93DF9300D0CDB7DEB79A83898389811D
:1023D0009A819C0140E050E088E893E1DC010E9492
:1023E000981FDC01CB01072E7AE0B695A79597954B
:1023F00087957A95D1F7702D0F900F90DF91CF913F
:102400000895CF92DF92EF92FF92CF93DF9300D0A7
:1024100000D000D0CDB7DEB79A8389837C836B83ED
:102420005E834D8389819A81CC01A0E0B0E0BC013C
:10243000CD010E94561E6B017C018D819E81CC01D5
:10244000A0E0B0E0BC01CD010E94561EDC01CB0132
:102450009C01AD01C701B6010E94AE1DDC01CB019C
:102460006C017D018B819C81CC01A0E0B0E0BC01BE
:10247000CD010E94561EDC01CB019C01AD01C701BC
:10248000B6010E94E41EDC01CB01BC01CD010E941B
:10249000271EDC01CB0126960FB6F894DEBF0FBED7
:1024A000CDBFDF91CF91FF90EF90DF90CF90089557
:1024B0000F93CF93DF9300D000D000D0CDB7DEB71D
:1024C00019821B821A821D821C820E947D000E943A
:1024D000011B0E94021181E00E94990E88EE91E09A
:1024E0000E94761B68E08BEC91E00E945D1488EE00
:1024F00091E00E94C11B84E690E00E944E1C7894FB
:102500000E949A108E8384E690E00E944E1C0E94E6
:102510003C019093D4018093D3018091D301909199
:10252000D4010E94E0119093D2018093D1010E94C6
:1025300028010E94E0119093D0018093CF010E9466
:10254000BF1084E690E00E944E1C0E941D150E9460
:102550000A1C8091B201882F90E081709927892B05
:10256000E9F18091B2018E7F8093B2018091E50103
:102570008630B9F48091E301882399F08091E601D7
:10258000882379F40E9428010E94E011BC018BECA1
:1025900091E00E947E188091DB019091DC010E9405
:1025A000C1118DB79EB74D970FB6F8949EBF0FBE61
:1025B0008DBF8DB79EB701962DE1EBECF1E0DC010C
:1025C00001900D922A95E1F70E94A70E8DB79EB754
:1025D0004D960FB6F894DEBF0FBECDBF8091B2010D
:1025E000882F90E088709927892B09F43FC080914B
:1025F000B201877F8093B2010E941D150E94F61BD5
:10260000882369F08091E501882349F48FE0809365
:10261000E5018CED95E00E94C818198227C00E9440
:10262000F61B882391F08091E5018F3071F4898148
:102630008F5F898389818431C9F481E08093E501CA
:1026400084E391E20E94C81811C00E94F61B982FE3
:1026500081E08927882351F08091E501882331F0BA
:102660000E94C71A80E090E00E94AD118091B201F3
:10267000882F90E080719927892B09F46ACF809187
:10268000B2018F7E8093B2014091E4012091CB0191
:102690003C818091D3019091D4016A817B81042F88
:1026A000432F0E94870F0E94F61B882369F18091B7
:1026B000E501813049F58091E301882329F180917A
:1026C000E601882309F58091DF019091E0018C59A2
:1026D0009F4F9093E0018093DF018091DF01909103
:1026E000E001893C924348F088EC92E39093E0014A
:1026F0008093DF0186E08093E5018091DF01909176
:10270000E0010E94C8182FC00E94F61B882309F41C
:1027100020CF8091E501863009F01BCF0E943C015B
:102720009B838A838091D3019091D4012A813B813C
:1027300041E0B9010E9425199D838C838091E101BC
:102740009091E2012C813D8140E051E0B9010E946D
:1027500001120E94C8188A819B810E94E011909307
:10276000D8018093D701F5CECF93DF9300D0CDB7BA
:10277000DEB79A83898389819A819C0140E050E089
:1027800088E893E1DC010E94981FDC01CB01072E51
:102790007AE0B695A795979587957A95D1F7702D9C
:1027A0000F900F90DF91CF910895CF92DF92EF922B
:1027B000FF92CF93DF9300D000D000D0CDB7DEB72B
:1027C0009A8389837C836B835E834D8389819A811D
:1027D000CC01A0E0B0E0BC01CD010E94561E6B010F
:1027E0007C018B819C81CC01A0E0B0E0BC01CD01DB
:1027F0000E94561EDC01CB019C01AD01C701B60150
:102800000E94AE1DDC01CB016C017D018D819E819A
:10281000CC01A0E0B0E0BC01CD010E94561EDC015D
:10282000CB019C01AD01C701B6010E94E41EDC0191
:10283000CB0120E030E040E85FE3BC01CD010E9425
:10284000411DDC01CB01BC01CD010E94271EDC0132
:10285000CB0126960FB6F894DEBF0FBECDBFDF9139
:10286000CF91FF90EF90DF90CF900895CF93DF93BB
:1028700000D000D000D0CDB7DEB79A8389837C83A7
:102880006B835E834D8329813A818B819C81821782
:10289000930748F429813A818D819E812817390751
:1028A00010F481E001C080E026960FB6F894DEBFF8
:1028B0000FBECDBFDF91CF910895CF93DF9300D0AE
:1028C0001F92CDB7DEB79A8389836B8389819A8102
:1028D000FC01128E89819A81FC01138E89819A8173
:1028E0002CEC31EFFC013283218389819A81FC0138
:1028F0001786168689819A81FC01118A108A89813E
:102900009A81FC011386128689819A81FC011582C5
:10291000148289819A81FC011586148689819A81A5
:10292000FC01138A128A89819A81FC01158A148A12
:1029300089819A81FC01118E89819A8122E0FC01B2
:10294000248F89819A812B81FC01238389819A813B
:102950000E9440100E94B31400000F900F900F903F
:10296000DF91CF910895CF93DF93CDB7DEB787E2A4
:1029700090E027E230E0F90120812260FC01208311
:1029800088E290E028E230E0F90120812D7FFC010F
:10299000208380E890E020E830E0F9012081216286
:1029A000FC01208381E890E021E830E0F9012081FA
:1029B0002C60FC01208380E090E0A0EAB0E48093EA
:1029C000B3019093B401A093B501B093B6018DEC1F
:1029D0009CECACE4BFE38093B7019093B801A09363
:1029E000B901B093BA018DEC9CECACE4B0E48093F7
:1029F000BB019093BC01A093BD01B093BE0186E0E2
:102A00009FEF9093C4018093C3018AEF90E090936D
:102A1000C6018093C5011092C8011092C70180EFD2
:102A200090E09093CA018093C90180E090E00E94F9
:102A3000FA180000DF91CF910895CF93DF93CDB7BF
:102A4000DEB70E9461010E94B4139C01C901880F86
:102A5000991F880F991F820F931F9093E201809313
:102A6000E1018091E1019091E20144E750E468EFD7
:102A70007AE20E943614982F81E0992309F480E0CD
:102A80008093E30184EE91E00E946D10882331F57C
:102A90008091E4018F3F19F41092E60126C081E095
:102AA0008093E6018091E4018295869586958370F6
:102AB000882F90E0837099278130910551F0823002
:102AC000910519F0892B09F010C089E08093E50188
:102AD0000CC08AE08093E501000007C084E1809388
:102AE000E50181E08093E60100C00000DF91CF9115
:102AF0000895CF92DF92EF92FF92CF93DF93CDB7FD
:102B0000DEB72F970FB6F894DEBF0FBECDBF9C8700
:102B10008B877E876D874F878D859E859C0140E0E2
:102B200050E08B859C85CC01A0E0B0E0281B390BE0
:102B30004A0B5B0B88EE93E0DC010E94981FDC01DE
:102B4000CB0189839A83AB83BC838091CC01909124
:102B5000CD019C0140E050E08F85882F90E0A0E0FF
:102B6000B0E0BC01CD010E94511FDC01CB018D837F
:102B70009E83AF83B88769817A818B819C810E9413
:102B8000581E6B017C016D817E818F8198850E942A
:102B9000581EDC01CB019C01AD01C701B6010E94AA
:102BA000AE1DDC01CB0120E030E04AE754E4BC017B
:102BB000CD010E94E41EDC01CB01BC01CD010E94CD
:102BC000201EDC01CB019A87898789859A852F96FB
:102BD0000FB6F894DEBF0FBECDBFDF91CF91FF904F
:102BE000EF90DF90CF900895CF92DF92EF92FF9217
:102BF000CF93DF93CDB7DEB72D970FB6F894DEBF36
:102C00000FBECDBF9D878C8719821B821A822091AF
:102C10003801309139018C859D852817390734F0AA
:102C200080916801909169019B838A83209164015E
:102C3000309165018C859D85821793070CF4FFC048
:102C400080919401909195019B838A83F8C089813A
:102C5000882F90E0880F991F885C9E4FFC0120818F
:102C600031818C859D852817390769F48981882FE2
:102C700090E0880F991F88599E4FFC0180819181B7
:102C80009B838A83D9C08981882F90E0880F991F00
:102C9000885C9E4FFC01208131818C859D85821747
:102CA00093070CF4C9C08981882F90E00196880FA2
:102CB000991F885C9E4FFC01208131818C859D8508
:102CC000281739070CF4B8C08981882F90E0019645
:102CD000880F991F88599E4FFC012081318189817D
:102CE000882F90E0880F991F88599E4FFC018081A2
:102CF0009181A901481B590BCA01CC01A0E0B0E0A9
:102D0000BC01CD010E94561E6B017C018981882F78
:102D100090E00196880F991F885C9E4FFC012081EE
:102D200031818981882F90E0880F991F885C9E4FA0
:102D3000FC0180819181A901481B590BCA01092E10
:102D4000000CAA0BBB0BBC01CD010E94581EDC017C
:102D5000CB019C01AD01C701B6010E94AE1DDC0193
:102D6000CB018C839D83AE83BF838981882F90E0C4
:102D70000196880F991F88599E4FFC01808191818F
:102D8000CC01A0E0B0E0BC01CD010E94561E6B0159
:102D90007C018981882F90E00196880F991F885CBB
:102DA0009E4FFC0180819181092E000CAA0BBB0B68
:102DB000BC01CD010E94581EDC01CB012C813D815C
:102DC0004E815F81BC01CD010E94E41EDC01CB017C
:102DD0009C01AD01C701B6010E94411DDC01CB0180
:102DE00088879987AA87BB878C859D85092E000CCB
:102DF000AA0BBB0BBC01CD010E94581EDC01CB010C
:102E00002C813D814E815F81BC01CD010E94E41E79
:102E1000DC01CB01288539854A855B85BC01CD0164
:102E20000E94421DDC01CB01BC01CD010E94271E86
:102E3000DC01CB019B838A8389818F5F89838A81AF
:102E40009B81892B21F48981863108F400CF8A8106
:102E50009B81893C994120F089E999E19B838A8390
:102E60008A819B812D960FB6F894DEBF0FBECDBF31
:102E7000DF91CF91FF90EF90DF90CF900895CF92A8
:102E8000DF92EF92FF92CF93DF93CDB7DEB72D970E
:102E90000FB6F894DEBF0FBECDBF9D878C87198219
:102EA0001B821A8220919801309199018C859D8511
:102EB000281739072CF08091A4019091A50111C128
:102EC0002091A2013091A3018C859D8582179307E3
:102ED0000CF4FDC08091AE019091AF0102C18981D7
:102EE000882F90E0880F991F88569E4FFC01208103
:102EF00031818C859D852817390769F48981882F50
:102F000090E0880F991F8C559E4FFC018081918124
:102F10009B838A83D9C08981882F90E0880F991F6D
:102F200088569E4FFC01208131818C859D858217BA
:102F300093070CF4C9C08981882F90E00196880F0F
:102F4000991F88569E4FFC01208131818C859D857B
:102F5000281739070CF4B8C08981882F90E00196B2
:102F6000880F991F8C559E4FFC01208131818981EA
:102F7000882F90E0880F991F8C559E4FFC0180810F
:102F80009181A901481B590BCA01CC01A0E0B0E016
:102F9000BC01CD010E94561E6B017C018981882FE6
:102FA00090E00196880F991F88569E4FFC01208162
:102FB00031818981882F90E0880F991F88569E4F14
:102FC000FC0180819181A901481B590BCA01092E7E
:102FD000000CAA0BBB0BBC01CD010E94581EDC01EA
:102FE000CB019C01AD01C701B6010E94AE1DDC0101
:102FF000CB018C839D83AE83BF838981882F90E032
:103000000196880F991F8C559E4FFC0180819181FC
:10301000CC01A0E0B0E0BC01CD010E94561E6B01C6
:103020007C018981882F90E00196880F991F88562E
:103030009E4FFC0180819181092E000CAA0BBB0BD5
:10304000BC01CD010E94581EDC01CB012C813D81C9
:103050004E815F81BC01CD010E94E41EDC01CB01E9
:103060009C01AD01C701B6010E94411DDC01CB01ED
:1030700088879987AA87BB878C859D85092E000C38
:10308000AA0BBB0BBC01CD010E94581EDC01CB0179
:103090002C813D814E815F81BC01CD010E94E41EE7
:1030A000DC01CB01288539854A855B85BC01CD01D2
:1030B0000E94421DDC01CB01BC01CD010E94271EF4
:1030C000DC01CB019B838A8389818F5F89838A811D
:1030D0009B81892B21F48981853008F400CF8A8176
:1030E0009B812D960FB6F894DEBF0FBECDBFDF914A
:1030F000CF91FF90EF90DF90CF900895CF93DF9323
:1031000000D000D0CDB7DEB79A8389837C836B83F0
:1031100089819A812B813C81FC01338722878981B7
:103120009A81FC01438189819A81FC012285338542
:1031300089819A81FC0184819581B9010E94791568
:103140009C0189819A81FC013787268789819A8130
:10315000FC01868597850E94F4159C0189819A81DE
:10316000FC01318B208B89819A81FC0186859785B2
:103170000E943F179C0189819A81FC01338B228B2D
:1031800000000F900F900F900F90DF91CF91089556
:10319000CF93DF9300D000D0CDB7DEB79C838B8375
:1031A0001A8219828B819C819093E0018093DF01C8
:1031B0008B819C81892B29F480E090E00E94FA1891
:1031C00011C02091E1013091E2018B819C8140E0AE
:1031D00051E0B9010E94D5139A83898389819A812C
:1031E0000E94FA1800000F900F900F900F90DF913F
:1031F000CF910895CF93DF9300D0CDB7DEB79A83F8
:10320000898389819A81892B51F480E890E020E8B4
:1032100030E0F90120812F7DFC01208310C08AE875
:1032200090E029813A81FC013183208380E890E09D
:1032300020E830E0F90120812062FC0120830000B9
:103240000F900F90DF91CF910895CF92DF92EF9280
:10325000FF92CF93DF93CDB7DEB767970FB6F894A1
:10326000DEBF0FBECDBF9C8B8B8B7E8B6D8B4F8B50
:1032700019821A821B821C821D821E821F8218865E
:1032800019861A861B861C862B893C898D899E8906
:10329000A901481B590BCA01988B8F878D899E897C
:1032A0009A8B898B8F89882339F18091B301909112
:1032B000B401A091B501B091B6016C017D01F7FA9E
:1032C000F094F7F8F0948F859889092E000CAA0BDA
:1032D000BB0BBC01CD010E94581EDC01CB019C013F
:1032E000AD01C701B6010E94E41EDC01CB01898358
:1032F0009A83AB83BC8320C0C090B301D090B4014B
:10330000E090B501F090B6018F859889092E000CE8
:10331000AA0BBB0BBC01CD010E94581EDC01CB01E6
:103320009C01AD01C701B6010E94E41EDC01CB0186
:1033300089839A83AB83BC832091BF013091C00104
:103340008F859889820F931F9093C0018093BF014E
:103350002091BF013091C0018091C5019091C601BB
:103360008217930744F48091C5019091C601909310
:10337000C0018093BF012091BF013091C0018091B5
:10338000C3019091C4012817390744F48091C30107
:103390009091C4019093C0018093BF018F898823CD
:1033A00049F18091B7019091B801A091B901B09114
:1033B000BA016C017D01F7FAF094F7F8F09480916E
:1033C000BF019091C001092E000CAA0BBB0BBC01E0
:1033D000CD010E94581EDC01CB019C01AD01C7014B
:1033E000B6010E94E41EDC01CB018D839E83AF8376
:1033F000B88722C0C090B701D090B801E090B90161
:10340000F090BA018091BF019091C001092E000C8B
:10341000AA0BBB0BBC01CD010E94581EDC01CB01E5
:103420009C01AD01C701B6010E94E41EDC01CB0185
:103430008D839E83AF83B8878F89882379F18091AC
:10344000BB019091BC01A091BD01B091BE016C0186
:103450007D01F7FAF094F7F8F0942091C1013091D2
:10346000C20189899A89A901481B590BCA01092EF1
:10347000000CAA0BBB0BBC01CD010E94581EDC0145
:10348000CB019C01AD01C701B6010E94E41EDC0125
:10349000CB0189879A87AB87BC8728C0C090BB01C6
:1034A000D090BC01E090BD01F090BE012091C1011F
:1034B0003091C20189899A89A901481B590BCA0117
:1034C000092E000CAA0BBB0BBC01CD010E94581E9B
:1034D000DC01CB019C01AD01C701B6010E94E41ED5
:1034E000DC01CB0189879A87AB87BC8789899A8958
:1034F0009093C2018093C1012D813E814F815885F7
:1035000069817A818B819C810E94421DDC01CB0103
:1035100029853A854B855C85BC01CD010E94421D01
:10352000DC01CB01BC01CD010E94201EDC01CB01DE
:103530009E878D872091C9013091CA018D859E8516
:103540002817390734F48091C9019091CA019E87E8
:103550008D872091C7013091C8018D859E85821786
:10356000930734F48091C7019091C8019E878D879D
:103570008D859E8567960FB6F894DEBF0FBECDBFD2
:10358000DF91CF91FF90EF90DF90CF900895CF9390
:10359000DF93CDB7DEB71092E5011092E0011092F3
:1035A000DF018091DF019091E0010E94C818109224
:1035B000D6011092D5011092D8011092D701109225
:1035C000DA011092D9011092DC011092DB010000A7
:1035D000DF91CF910895CF93DF9300D0CDB7DEB7C1
:1035E00089836A838981882F90E0382F22278A81F6
:1035F000882F90E0822B932B0F900F90DF91CF912B
:103600000895CF93DF93CDB7DEB784E290E024E254
:1036100030E0F90120812268FC0120838AE290E0F9
:103620002AE230E0F90120812062FC0120838BE254
:1036300090E02BE230E0F90120812062FC01208340
:103640008CE490E025E5FC0120830000DF91CF9120
:103650000895CF93DF9300D000D0CDB7DEB79C8321
:103660008B838BE290E02BE230E0F90120812F7D0B
:10367000FC0120838EE490E02B813C81232F3327B3
:10368000FC01208300008DE490E0FC018081882310
:10369000D4F78EE490E0FC018081898389818F7367
:1036A00089838EE490E02B81FC01208300008DE46F
:1036B00090E0FC0180818823D4F78EE490E0FC0147
:1036C00080818A838BE290E02BE230E0F901208157
:1036D0002062FC0120836A8189810E94EB1A0F908D
:1036E0000F900F900F90DF91CF910895CF93DF93BC
:1036F00000D0CDB7DEB79A83898389819A81FC0196
:10370000108289819A81FC01118287E290E027E290
:1037100030E0F90120812F7BFC01208384E290E0DE
:1037200024E230E0F90120812F7EFC01208388E231
:1037300090E028E230E0F90120812064FC01208340
:1037400085E290E025E230E0F90120812061FC0172
:10375000208384E290E024E230E0F90120812066B9
:10376000FC01208385E290E025E230E0F901208130
:103770002066FC01208300000F900F90DF91CF9115
:103780000895CF93DF9300D0CDB7DEB79A838983B6
:1037900086E290E0FC018081882F90E08074992778
:1037A000892B31F089819A8121E0FC01208304C0BA
:1037B00089819A81FC01108283E290E0FC01808182
:1037C000882F90E080719927892B31F089819A8127
:1037D00021E0FC01218304C089819A81FC011182CE
:1037E00000000F900F90DF91CF910895CF93DF935A
:1037F000CDB7DEB786E290E0FC018081882F90E0B3
:103800008074992721E0892B09F020E0822FDF9135
:10381000CF910895CF93DF93CDB7DEB71092EC012F
:103820001092ED011092EE011092EF011092F6014C
:103830001092F3011092F2011092F4011092F5012E
:103840001092EB011092EA011092F1011092F00136
:103850001092B20187E490E029EFFC0120838EE60C
:1038600090E02EE630E0F90120812260FC01208307
:1038700084E490E024E430E0F90120812260FC013E
:10388000208385E490E025E430E0F9012081236085
:10389000FC0120830000DF91CF910895CF93DF9347
:1038A00000D0CDB7DEB79A83898387E490E029EF13
:1038B000FC01208384E490E024E430E0F9012081DD
:1038C0002260FC01208385E490E025E430E0F901EA
:1038D00020812360FC012083000086E390E0FC014E
:1038E0008081882F90E082709927892BB1F386E33D
:1038F00090E026E330E0F90120812260FC01208382
:1039000089819A8101979A83898389819A81892BF8
:1039100061F600000F900F90DF91CF9108951F92F4
:103920000F9200905F000F9211242F938F939F931B
:10393000AF93BF93CF93DF93CDB7DEB78091EC0108
:103940009091ED01A091EE01B091EF010196A11DC2
:10395000B11D8093EC019093ED01A093EE01B09323
:10396000EF018091F6018F5F8093F6018091F30162
:103970008F5F8093F3018091F2018F5F8093F2015A
:103980008091F4018F5F8093F4018091F5018F5F46
:103990008093F5018091EA019091EB01019690935B
:1039A000EB018093EA018091F0019091F101019681
:1039B0009093F1018093F0018091F6018A3039F4FF
:1039C0001092F6018091B20181608093B2018091E2
:1039D000F301843139F41092F3018091B2018260D5
:1039E0008093B2018091F201823339F41092F20196
:1039F0008091B20184608093B2018091F401843699
:103A000039F41092F4018091B20188608093B20180
:103A10008091F5018A3F39F41092F5018091B2014D
:103A200080618093B2018091EA019091EB01843F23
:103A3000914049F41092EB011092EA018091B20199
:103A400080628093B2018091F0019091F101883EF3
:103A5000934049F41092F1011092F0018091B2016B
:103A600080648093B2010000DF91CF91BF91AF914C
:103A70009F918F912F910F9000925F000F901F9058
:103A800018955058BB27AA270E94591D0C94AA1EAE
:103A90000E949C1E38F00E94A31E20F039F49F3F24
:103AA00019F426F40C94991E0EF4E095E7FB0C949F
:103AB000931EE92F0E94BB1E58F3BA1762077307C3
:103AC0008407950720F079F4A6F50C94DD1E0EF41A
:103AD000E0950B2EBA2FA02D0B01B90190010C011E
:103AE000CA01A0011124FF27591B99F0593F50F436
:103AF000503E68F11A16F040A22F232F342F44278E
:103B0000585FF3CF469537952795A795F040539585
:103B1000C9F77EF41F16BA0B620B730B840BBAF055
:103B20009150A1F0FF0FBB1F661F771F881FC2F7C0
:103B30000EC0BA0F621F731F841F48F487957795D4
:103B40006795B795F7959E3F08F0B0CF9395880F8E
:103B500008F09927EE0F9795879508950E94C21D4A
:103B60000C94AA1E0E94A31E58F00E949C1E40F0B6
:103B700029F45F3F29F00C94931E51110C94DE1E22
:103B80000C94991E0E94BB1E68F39923B1F3552330
:103B900091F3951B550BBB27AA2762177307840760
:103BA00038F09F5F5F4F220F331F441FAA1FA9F3F6
:103BB00035D00E2E3AF0E0E832D091505040E695E4
:103BC000001CCAF72BD0FE2F29D0660F771F881F45
:103BD000BB1F261737074807AB07B0E809F0BB0B38
:103BE000802DBF01FF2793585F4F3AF09E3F51054C
:103BF00078F00C94931E0C94DE1E5F3FE4F3983E25
:103C0000D4F3869577956795B795F7959F5FC9F734
:103C1000880F911D9695879597F90895E1E0660FB5
:103C2000771F881FBB1F621773078407BA0720F02E
:103C3000621B730B840BBA0BEE1F88F7E095089597
:103C40000E94271E6894B1110C94DE1E08950E94F4
:103C5000C31E88F09F5798F0B92F9927B751B0F03D
:103C6000E1F0660F771F881F991F1AF0BA95C9F700
:103C700014C0B13091F00E94DD1EB1E008950C94A3
:103C8000DD1E672F782F8827B85F39F0B93FCCF356
:103C9000869577956795B395D9F73EF4909580957D
:103CA000709561957F4F8F4F9F4F0895E89409C09D
:103CB00097FB3EF490958095709561957F4F8F4F5F
:103CC0009F4F9923A9F0F92F96E9BB279395F69575
:103CD000879577956795B795F111F8CFFAF4BB0FF3
:103CE00011F460FF1BC06F5F7F4F8F4F9F4F16C057
:103CF000882311F096E911C0772321F09EE8872FE1
:103D0000762F05C0662371F096E8862F70E060E09C
:103D10002AF09A95660F771F881FDAF7880F969515
:103D2000879597F9089597F99F6780E870E060E0BC
:103D300008959FEF80EC089500240A941616170644
:103D400018060906089500240A941216130614068C
:103D500005060895092E0394000C11F4882352F0EF
:103D6000BB0F40F4BF2B11F460FF04C06F5F7F4FA7
:103D70008F4F9F4F089557FD9058440F551F59F08E
:103D80005F3F71F04795880F97FB991F61F09F3F48
:103D900079F087950895121613061406551FF2CF71
:103DA0004695F1DF08C0161617061806991FF1CFC1
:103DB00086957105610508940895E894BB276627E8
:103DC0007727CB0197F908950E94F71E0C94AA1E3D
:103DD0000E949C1E38F00E94A31E20F0952311F033
:103DE0000C94931E0C94991E11240C94DE1E0E94B8
:103DF000BB1E70F3959FC1F3950F50E0551F629F56
:103E0000F001729FBB27F00DB11D639FAA27F00D33
:103E1000B11DAA1F649F6627B00DA11D661F829F5A
:103E20002227B00DA11D621F739FB00DA11D621F3F
:103E3000839FA00D611D221F749F3327A00D611D5C
:103E4000231F849F600D211D822F762F6A2F11243E
:103E50009F5750409AF0F1F088234AF0EE0FFF1F71
:103E6000BB1F661F771F881F91505040A9F79E3FC8
:103E7000510580F00C94931E0C94DE1E5F3FE4F31A
:103E8000983ED4F3869577956795B795F795E7951E
:103E90009F5FC1F7FE2B880F911D9695879597F927
:103EA0000895DB018F939F930E94981FBF91AF915C
:103EB000A29F800D911DA39F900DB29F900D112484
:103EC0000895A1E21A2EAA1BBB1BFD010DC0AA1F5B
:103ED000BB1FEE1FFF1FA217B307E407F50720F073
:103EE000A21BB30BE40BF50B661F771F881F991FEE
:103EF0001A9469F760957095809590959B01AC0137
:103F0000BD01CF010895EE0FFF1F0590F491E02D44
:103F10000994A29FB001B39FC001A39F700D811DA2
:103F20001124911DB29F700D811D1124911D0895C2
:103F30000E94891FA59F900DB49F900DA49F800D96
:0A3F4000911D11240895F894FFCF9D
:103F4A008A02BC02EE02200352038403B603E8038A
:103F5A001A044C047E04B004E204140533007B0006
:103F6A00C3000A0152019A01E10129027102B80251
:103F7A00000348038F03D70330F8BEF925FB61FC21
:103F8A00E0FC74FD6BFE49FF96FFD8FF00000F00AE
:103F9A006100C100FA0049019F02AA037E04690573
:103FAA00A406D0076608CA088A02BC02EE022003E9
:103FBA00360352038403B603CA03DE03EB03F20398
:103FCA001A044C046C049B049505A506C6078209CD
:103FDA00550D0F15521D872700004A019E02AC039A
:103FEA006405EC090000B80B70176220E02ED65168
:00000001FF
