:100000000C943E000C945B000C945B000C945B0021
:100010000C945B000C945B000C945B000C945B00F4
:100020000C945B000C945B000C945B000C945B00E4
:100030000C945B000C945B000C945B000C945B00D4
:100040000C945B000C9462030C945B000C945B00BA
:100050000C945B000C945B000C945B000C945B00B4
:100060000C945B000C945B000C945B000C945B00A4
:100070000C945B000C945B000C945B0011241FBE7D
:10008000CFEFD8E0DEBFCDBF11E0A0E0B1E0E6ECFD
:10009000FAE002C005900D92A030B107D9F721E037
:1000A000A0E0B1E001C01D92A031B207E1F70E94CB
:1000B00020020C9461050C940000CF93DF93CDB720
:1000C000DEB78BE790E02BE730E0F901208120627A
:1000D000FC0120838CE790E020E4FC0120838AE788
:1000E00090E02AE730E0F90120812768FC012083B5
:1000F0000000DF91CF910895CF93DF931F92CDB78A
:10010000DEB789838CE790E02CE730E0F9012081AD
:10011000322F307F29812F70232BFC0120838AE727
:1001200090E02AE730E0F90120812064FC0120837F
:1001300000008AE790E0FC018081882F90E08074C5
:100140009927892BB1F788E790E0FC0180819181A4
:100150000F90DF91CF910895CF93DF93CDB7DEB7A6
:1001600027970FB6F894DEBF0FBECDBF8E836F8387
:1001700019821A821B821C821D8215C08E810E94E8
:100180007C00CC01A0E0B0E029813A814B815C8108
:10019000820F931FA41FB51F89839A83AB83BC83EF
:1001A0008D818F5F8D839D818F81981738F38F812B
:1001B000282F30E040E050E089819A81AB81BC81FA
:1001C000BC01CD010E942505DA01C90127960FB6B1
:1001D000F894DEBF0FBECDBFDF91CF910895CF93CE
:1001E000DF93CDB7DEB765E088E00E94AC00DF9119
:1001F000CF910895CF93DF93CDB7DEB765E089E067
:100200000E94AC00DF91CF910895CF93DF93CDB7DB
:10021000DEB765E083E00E94AC00DF91CF910895E6
:10022000CF93DF93CDB7DEB765E085E00E94AC00E9
:10023000DF91CF910895CF93DF9300D01F92CDB778
:10024000DEB719821DC08DEE90E029812295207FB6
:10025000FC0120838EEE90E09B838A8309C08A8113
:100260009B81FC0110828A819B8101969B838A83FA
:100270008A819B81883F910590F389818F5F898373
:100280008981863000F300000F900F900F90DF916E
:10029000CF910895CF93DF931F92CDB7DEB78983B7
:1002A00088ED90E021E0FC01208382EE90E026E0E2
:1002B000FC01208383EE90E024E0FC01208384EEA7
:1002C00090E023E1FC01208381E00F90DF91CF914A
:1002D0000895CF93DF931F92CDB7DEB789838981CD
:1002E0000E944A01882311F480E00CC00E941B0187
:1002F00088ED90E028ED30E0F90120812260FC01DA
:10030000208381E00F90DF91CF910895CF93DF9309
:1003100000D0CDB7DEB79A83898389810F900F9083
:10032000DF91CF910895CF93DF9300D0CDB7DEB7A3
:100330009A83898389819A81892F99270F900F90B9
:10034000DF91CF910895CF93DF9300D0CDB7DEB783
:1003500080E098E40E9415039A83898389819A81B9
:100360000E949301883231F089819A810E94930121
:100370008E3229F489819A810E94860101C080E031
:100380000F900F90DF91CF910895CF93DF9300D01E
:10039000CDB7DEB71A82198280E098E70E94150374
:1003A0009A83898389819A818F3728E2920761F045
:1003B0008F3F28E2920721F08535984219F006C058
:1003C00081E005C082E003C083E001C080E00F90BF
:1003D0000F90DF91CF910895CF93DF9300D0CDB7E9
:1003E000DEB71A8219828DE996E50E9415039A8379
:1003F000898300000F900F90DF91CF910895CF93E4
:10040000DF9300D0CDB7DEB79A83898389819A8143
:100410009C0140E050E088E893E1DC010E94470540
:10042000DC01CB01072E7AE0B695A79597958795C5
:100430007A95D1F7702D0F900F90DF91CF9108959D
:10044000CF93DF9300D000D0CDB7DEB70E946A0211
:100450000E945D000E94E90281E00E9469010E9401
:1004600010010E94FF019C01C901880F991F880F8C
:10047000991F820F931F90930B0180930A010E9492
:1004800005010E94FF0190930D0180930C010E94D1
:10049000A3018A8303C00E94C501898389818130B9
:1004A000D1F70E94EC010E94EF000E94FF0190939F
:1004B0000101809300010E94FA000E94FF019093C5
:1004C0000301809302010E9496028AE090E09C83DF
:1004D0008B83FFCFCF93DF93CDB7DEB784E290E07D
:1004E00024E230E0F90120812066FC01208385E2CE
:1004F00090E025E230E0F90120812066FC012083B4
:1005000087E290E027E230E0F90120812068FC01D9
:10051000208388E290E028E230E0F9012081206821
:10052000FC0120830000DF91CF910895CF93DF93EA
:10053000CDB7DEB780910401909105019C018091B7
:10054000000190910101A901481B590BCA01092E14
:10055000000CAA0BBB0BBC01CD010E942C04DC01DA
:10056000CB012AE939E947EF53E4BC01CD010E94F0
:100570008203DC01CB0120E030E04AE754E4BC0117
:10058000CD010E94B804DC01CB01BC01CD010E9469
:10059000F403DC01CB019093090180930801000072
:1005A000DF91CF910895CF93DF9300D0CDB7DEB721
:1005B00089836A838981882F90E0382F22278A8156
:1005C000882F90E0822B932B0F900F90DF91CF918B
:1005D0000895CF93DF93CDB7DEB784E290E024E2B5
:1005E00030E0F90120812268FC0120838AE290E05A
:1005F0002AE230E0F90120812062FC0120838BE2B5
:1006000090E02BE230E0F90120812062FC012083A0
:100610008CE490E02CE430E0F90120812565FC01B8
:1006200020830000DF91CF910895CF93DF9300D016
:1006300000D0CDB7DEB79C838B838BE290E02BE2BA
:1006400030E0F90120812F7DFC0120838EE490E0D1
:100650002B813C81232F3327FC01208300008DE474
:1006600090E0FC0180818823D4F78EE490E0FC01C7
:100670008081898389818F7389838EE490E02B81C7
:10068000FC01208300008DE490E0FC018081882340
:10069000D4F78EE490E0FC0180818A838BE290E0C5
:1006A0002BE230E0F90120812062FC0120836A8185
:1006B00089810E94D3020F900F900F900F90DF91CD
:1006C000CF9108951F920F9200905F000F92112416
:1006D0008F939F93CF93DF93CDB7DEB780910E01B9
:1006E00090910F01019690930F0180930E010000ED
:1006F000DF91CF919F918F910F9000925F000F90AB
:100700001F9018950E9496030C947E040E94770413
:1007100058F00E94700440F029F45F3F29F00C94D7
:10072000670451110C94B2040C946D040E948F0460
:1007300068F39923B1F3552391F3951B550BBB2710
:10074000AA2762177307840738F09F5F5F4F220F55
:10075000331F441FAA1FA9F335D00E2E3AF0E0E84C
:1007600032D091505040E695001CCAF72BD0FE2F96
:1007700029D0660F771F881FBB1F2617370748072A
:10078000AB07B0E809F0BB0B802DBF01FF279358E2
:100790005F4F3AF09E3F510578F00C9467040C943B
:1007A000B2045F3FE4F3983ED4F38695779567955E
:1007B000B795F7959F5FC9F7880F911D9695879517
:1007C00097F90895E1E0660F771F881FBB1F621736
:1007D00073078407BA0720F0621B730B840BBA0BF4
:1007E000EE1F88F7E09508950E94FB036894B1110D
:1007F0000C94B20408950E94970488F09F5798F0D3
:10080000B92F9927B751B0F0E1F0660F771F881F15
:10081000991F1AF0BA95C9F714C0B13091F00E942F
:10082000B104B1E008950C94B104672F782F8827A4
:10083000B85F39F0B93FCCF3869577956795B39556
:10084000D9F73EF490958095709561957F4F8F4FC5
:100850009F4F0895E89409C097FB3EF490958095CA
:10086000709561957F4F8F4F9F4F9923A9F0F92F76
:1008700096E9BB279395F695879577956795B795F4
:10088000F111F8CFFAF4BB0F11F460FF1BC06F5FDA
:100890007F4F8F4F9F4F16C0882311F096E911C0EC
:1008A000772321F09EE8872F762F05C0662371F00D
:1008B00096E8862F70E060E02AF09A95660F771F21
:1008C000881FDAF7880F9695879597F9089597F915
:1008D0009F6780E870E060E008959FEF80EC0895E6
:1008E00000240A941616170618060906089500240F
:1008F0000A9412161306140605060895092E039489
:10090000000C11F4882352F0BB0F40F4BF2B11F4FC
:1009100060FF04C06F5F7F4F8F4F9F4F089557FD5B
:100920009058440F551F59F05F3F71F04795880F5D
:1009300097FB991F61F09F3F79F0879508951216F4
:1009400013061406551FF2CF4695F1DF08C01616A0
:1009500017061806991FF1CF869571056105089451
:100960000895E894BB2766277727CB0197F9089568
:100970000E94CB040C947E040E94700438F00E9404
:10098000770420F0952311F00C9467040C946D0407
:1009900011240C94B2040E948F0470F3959FC1F34C
:1009A000950F50E0551F629FF001729FBB27F00D1D
:1009B000B11D639FAA27F00DB11DAA1F649F662772
:1009C000B00DA11D661F829F2227B00DA11D621FC1
:1009D000739FB00DA11D621F839FA00D611D221F7B
:1009E000749F3327A00D611D231F849F600D211D5F
:1009F000822F762F6A2F11249F5750409AF0F1F0E2
:100A000088234AF0EE0FFF1FBB1F661F771F881F4A
:100A100091505040A9F79E3F510580F00C94670417
:100A20000C94B2045F3FE4F3983ED4F38695779537
:100A30006795B795F795E7959F5FC1F7FE2B880FF0
:100A4000911D9695879597F90895A1E21A2EAA1BF4
:100A5000BB1BFD010DC0AA1FBB1FEE1FFF1FA2176E
:100A6000B307E407F50720F0A21BB30BE40BF50B6B
:100A7000661F771F881F991F1A9469F760957095F4
:100A8000809590959B01AC01BD01CF0108950E9416
:100A90005205A59F900DB49F900DA49F800D911DB0
:100AA00011240895A29FB001B39FC001A39F700DB0
:100AB000811D1124911DB29F700D811D1124911D66
:060AC0000895F894FFCF39
:00000001FF
