S00C0000424C34392E737265631D
S11300000C9449000C9466000C9466000C946600F1
S11300100C9466000C9466000C9466000C946600C4
S11300200C9466000C9466000C9466000C946600B4
S11300300C9466000C9466000C9466000C94ED0F0E
S11300400C9466000C9466000C9466000C94660094
S11300500C9466000C9466000C9466000C94660084
S11300600C9466000C9466000C9466000C94660074
S11300700C9466000C9466000C946600A6029C0323
S113008086045405D7056706010727085A09970A05
S11300904D0B11241FBECFEFD8E0DEBFCDBF11E062
S11300A0A0E0B1E0E8EEF3E202C005900D92A030CA
S11300B0B107D9F721E0A0E0B1E001C01D92A03161
S11300C0B207E1F70E948A0E0C94F2110C9400001E
S11300D0CF93DF93CDB7DEB78BE790E02BE730E02B
S11300E0F90120812062FC0120838CE790E020E468
S11300F0FC0120838AE790E02AE730E0F9012081BF
S11301002768FC0120830000DF91CF910895CF93ED
S1130110DF931F92CDB7DEB789838CE790E02CE79D
S113012030E0F9012081322F307F29812F70232B79
S1130130FC0120838AE790E02AE730E0F90120817E
S11301402064FC01208300008AE790E0FC018081A8
S1130150882F90E080749927892BB1F788E790E085
S1130160FC01808191810F90DF91CF910895CF930D
S1130170DF93CDB7DEB727970FB6F894DEBF0FBE77
S1130180CDBF8E836F8319821A821B821C821D82CB
S113019015C08E810E948700CC01A0E0B0E02981C7
S11301A03A814B815C81820F931FA41FB51F898301
S11301B09A83AB83BC838D818F5F8D839D818F8177
S11301C0981738F38F81282F30E040E050E0898180
S11301D09A81AB81BC81BC01CD010E94B011DA01CE
S11301E0C90127960FB6F894DEBF0FBECDBFDF91CD
S11301F0CF910895CF93DF93CDB7DEB765E088E064
S11302000E94B700DF91CF910895CF93DF93CDB7CC
S1130210DEB765E089E00E94B700DF91CF910895D1
S1130220CF93DF93CDB7DEB765E083E00E94B700DC
S1130230DF91CF910895CF93DF93CDB7DEB765E01B
S113024085E00E94B700DF91CF910895CF93DF93AB
S113025000D01F92CDB7DEB719821DC08DEE90E09D
S113026029812295207FFC0120838EEE90E09B83E0
S11302708A8309C08A819B81FC0110828A819B81C7
S113028001969B838A838A819B81883F910590F3A1
S113029089818F5F89838981863000F300000F9004
S11302A00F900F90DF91CF910895CF93DF9300D0FB
S11302B0CDB7DEB78DEE90E0FC0180818A83198290
S11302C01BC08DEE90E029812295207FFC012083C4
S11302D08FEE90E0FC018081882F90E0807C99274C
S11302E0892B39F48DEE90E02A81FC0120838981E9
S11302F00CC089818F5F89838981863010F38DEEEC
S113030090E02A81FC0120838FEF0F900F90DF9102
S1130310CF910895CF93DF9300D0CDB7DEB78FEEA2
S113032090E0FC018081882F90E0807C9927892BC4
S113033011F48FEF1CC08EEE90E0FC018081898364
S11303408981807E8A838A81803231F08A818034F7
S113035019F08A81803A11F48A8109C089818F71E8
S11303608A838A81882311F08A8101C080E00F90FA
S11303700F90DF91CF910895CF93DF9300D01F9218
S1130380CDB7DEB79B838A83198210C08981882FF9
S113039090E02A813B81820F931F2AEF30E0F9011C
S11303A02081FC01208389818F5F89838981282FA3
S11303B030E08FEE90E0FC018081882F90E08F7018
S11303C099272817390714F300000F900F900F9006
S11303D0DF91CF910895CF93DF931F92CDB7DEB70E
S11303E0898388ED90E021E0FC01208382EE90E097
S11303F026E0FC01208383EE90E024E0FC012083CE
S113040084EE90E023E1FC01208381E00F90DF91F2
S1130410CF910895CF93DF931F92CDB7DEB7898331
S113042089810E94EB01882311F480E00CC00E94B2
S1130430260188ED90E028ED30E0F901208122606A
S1130440FC01208381E00F90DF91CF910895CF9339
S1130450DF93CDB7DEB72A970FB6F894DEBF0FBE91
S1130460CDBF9A87898789859A85FC0181818C30E3
S113047039F589859A85FC0181858036D9F48DEE1C
S113048090E029853A85F90120812295207FFC019D
S113049020838FEE90E02FEE30E0F90120812F735E
S11304A0FC0120838EEE90E0FC01108289859A8500
S11304B0FC01108289859A85FC0111860C94B30C89
S11304C00E9455018C838C818F3F11F40C94AC0CE9
S11304D089859A8520E6FC01218789859A852C8166
S11304E0FC0120838DEE90E02C812295207FFC017D
S11304F020838EEE90E09B838A8309C08A819B814E
S1130500FC0110828A819B8101969B838A838A8164
S11305109B81883F910590F389859A85FC018181AF
S1130520882F90E0092E000CAA0BBB0B41E050E091
S11305302AE030E0841B950B2817390710F40C943B
S1130540A60C825C9F4FFC010C94D21189859A857C
S1130550FC018385882309F469C083EF90E0298531
S11305603A852E5F3F4F2D5F3F4FF9012081422F87
S1130570440F440F440F29853A852E5F3F4F2E5F69
S11305803F4FF9012081229526952770240FFC0105
S1130590208382EF90E029853A852E5F3F4F2E5FBE
S11305A03F4FF9012081422F440F440F440F298506
S11305B03A852E5F3F4F2F5F3F4FF90120812295EF
S11305C026952770240FFC01208381EF90E0298574
S11305D03A852E5F3F4F2F5F3F4FF9012081422F15
S11305E0440F440F440F29853A852E5F3F4FF9018C
S11305F02081229526952770240FFC01208380EF0B
S113060090E029853A852E5F3F4FF9012081220F22
S1130610220F220FFC0120838FEE90E02FEE30E0BA
S1130620F90120812061FC01208330C083EF90E038
S113063029853A852E5F3F4F2F5F3F4FF901208177
S1130640422F4295440F407E29853A852E5F3F4FC5
S1130650F9012081269526952695240FFC012083F7
S113066082EF90E029853A852E5F3F4FF901208182
S11306702295220F207EFC0120838FEE90E02FEE46
S113068030E0F90120812F7EFC012083198213C000
S11306908AEF90E029853A85F901478150852981BF
S11306A0222F30E0240F351FF9012081FC01208323
S11306B089818F5F898389859A85FC0196818981E7
S11306C0891730F389859A85FC018285882351F046
S11306D080EF90E020EF30E0F90120812460FC01FC
S11306E0208309C080EF90E020EF30E0F901208101
S11306F02B7FFC0120838FEE90E02FEE30E0F90198
S1130700408129853A85F9012681242BFC01208327
S11307108FEE90E02FEE30E0F90120812F73FC0181
S113072020838FEE90E02FEE30E0F90120812064E9
S1130730FC0120830C94B30C89859A85FC01838584
S1130740882309F469C083EF90E029853A852E5FF8
S11307503F4F2D5F3F4FF9012081422F440F440F3B
S1130760440F29853A852E5F3F4F2E5F3F4FF90195
S11307702081229526952770240FFC01208382EF87
S113078090E029853A852E5F3F4F2E5F3F4FF90158
S11307902081422F440F440F440F29853A852E5F50
S11307A03F4F2F5F3F4FF9012081229526952770F7
S11307B0240FFC01208381EF90E029853A852E5F88
S11307C03F4F2F5F3F4FF9012081422F440F440FC9
S11307D0440F29853A852E5F3F4FF90120812295E8
S11307E026952770240FFC01208380EF90E0298553
S11307F03A852E5F3F4FF9012081220F220F220FED
S1130800FC0120838FEE90E02FEE30E0F90120818F
S11308102061FC01208330C083EF90E029853A8574
S11308202E5F3F4F2F5F3F4FF9012081422F4295AA
S1130830440F407E29853A852E5F3F4FF901208180
S1130840269526952695240FFC01208382EF90E0BF
S113085029853A852E5F3F4FF90120812295220F89
S1130860207EFC0120838FEE90E02FEE30E0F90132
S113087020812F7EFC012083198213C08AEF90E02F
S113088029853A85F901478150852981222F30E055
S1130890240F351FF9012081FC01208389818F5F9A
S11308A0898389859A85FC0196818981891730F32A
S11308B089859A85FC01128680EF90E020EF30E074
S11308C0F90120812B7FFC0120838FEE90E02FEE35
S11308D030E0F901408129853A85F9012681242BEC
S11308E0FC0120838FEE90E02FEE30E0F9012081AF
S11308F02F73FC0120838FEE90E02FEE30E0F9019E
S113090020812064FC0120830C94B30C89859A8592
S1130910FC018385882309F469C083EF90E029856D
S11309203A852E5F3F4F2D5F3F4FF9012081422FC3
S1130930440F440F440F29853A852E5F3F4F2E5FA5
S11309403F4FF9012081229526952770240FFC0141
S1130950208382EF90E029853A852E5F3F4F2E5FFA
S11309603F4FF9012081422F440F440F440F298542
S11309703A852E5F3F4F2F5F3F4FF901208122952B
S113098026952770240FFC01208381EF90E02985B0
S11309903A852E5F3F4F2F5F3F4FF9012081422F51
S11309A0440F440F440F29853A852E5F3F4FF901C8
S11309B02081229526952770240FFC01208380EF47
S11309C090E029853A852E5F3F4FF9012081220F5F
S11309D0220F220FFC0120838FEE90E02FEE30E0F7
S11309E0F90120812061FC01208330C083EF90E075
S11309F029853A852E5F3F4F2F5F3F4FF9012081B4
S1130A00422F4295440F407E29853A852E5F3F4F01
S1130A10F9012081269526952695240FFC01208333
S1130A2082EF90E029853A852E5F3F4FF9012081BE
S1130A302295220F207EFC0120838FEE90E02FEE82
S1130A4030E0F90120812F7EFC01208389859A857D
S1130A5021E0FC01228780EF90E020EF30E0F901F3
S1130A6020812460FC0120838FEE90E02FEE30E0A3
S1130A70F901408129853A85F9012681242BFC015D
S1130A8020838FEE90E02FEE30E0F90120812F7368
S1130A90FC0120838FEE90E02FEE30E0F9012081FD
S1130AA02064FC0120835FC71D821E821F8218867A
S1130AB027EF30E0CE0105960396FC018081482F94
S1130AC0440F440F440FCE0105960296FC01808129
S1130AD0829586958770840FF901808326EF30E034
S1130AE0CE0105960296FC018081482F440F440FE5
S1130AF0440FCE0105960196FC018081829586956E
S1130B008770840FF901808325EF30E0CE010596CC
S1130B100196FC018081482F440F440F440FCE01FD
S1130B200596FC018081829586958770840FF90172
S1130B30808384EF90E09E012B5F3F4FF901208179
S1130B40220F220F220FFC0120838FEE90E02FEE64
S1130B5030E0F901408129853A85F9012681242B69
S1130B60FC01208384EF90E024EF30E0F901208140
S1130B702B7FFC01208384EF90E024EF30E0F90127
S1130B8020812E7FFC0120838FEE90E02FEE30E059
S1130B90F90120812F73FC0120838FEE90E02FEE6A
S1130BA030E0F90120812068FC012083DCC61D822D
S1130BB01E821F82188627EF30E0CE010596039629
S1130BC0FC018081482F440F440F440FCE01059649
S1130BD00296FC018081829586958770840FF901C5
S1130BE0808326EF30E0CE0105960296FC018081D9
S1130BF0482F440F440F440FCE0105960196FC0183
S1130C008081829586958770840FF901808325EF12
S1130C1030E0CE0105960196FC018081482F440FF7
S1130C20440F440FCE010596FC0180818295869580
S1130C308770840FF901808384EF90E09E012B5F1D
S1130C403F4FF9012081220F220F220FFC01208344
S1130C508FEE90E02FEE30E0F901408129853A854E
S1130C60F9012681242BFC01208389859A85FC01C6
S1130C70128684EF90E024EF30E0F90120812460B3
S1130C80FC01208380EF90E020EF30E0F901208127
S1130C902B7FFC01208384EF90E024EF30E0F90106
S1130CA020812E7FFC0120838FEE90E02FEE30E038
S1130CB0F90120812F73FC0120838FEE90E02FEE49
S1130CC030E0F90120812068FC0120834CC61D829C
S1130CD01E821F82188627EF30E0CE010596039608
S1130CE0FC018081482F440F440F440FCE01059628
S1130CF00296FC018081829586958770840FF901A4
S1130D00808326EF30E0CE0105960296FC018081B7
S1130D10482F440F440F440FCE0105960196FC0161
S1130D208081829586958770840FF901808325EFF1
S1130D3030E0CE0105960196FC018081482F440FD6
S1130D40440F440FCE010596FC018081829586955F
S1130D508770840FF901808384EF90E09E012B5FFC
S1130D603F4FF9012081220F220F220FFC01208323
S1130D708FEE90E02FEE30E0F901408129853A852D
S1130D80F9012681242BFC01208389859A8521E0A1
S1130D90FC01228784EF90E024EF30E0F901208108
S1130DA02460FC01208380EF90E020EF30E0F90123
S1130DB020812460FC0120838FEE90E02FEE30E050
S1130DC0F90120812F7DFC01208384EF90E024EF42
S1130DD030E0F90120812E7FFC0120838FEE90E02A
S1130DE02FEE30E0F90120812F73FC0120838FEE78
S1130DF090E02FEE30E0F90120812068FC0120838F
S1130E00B2C589859A85FC018385882309F469C064
S1130E1083EF90E029853A852E5F3F4F2D5F3F4F4A
S1130E20F9012081422F440F440F440F29853A854C
S1130E302E5F3F4F2E5F3F4FF9012081229526956B
S1130E402770240FFC01208382EF90E029853A85E6
S1130E502E5F3F4F2E5F3F4FF9012081422F440FF9
S1130E60440F440F29853A852E5F3F4F2F5F3F4F34
S1130E70F9012081229526952770240FFC012083F7
S1130E8081EF90E029853A852E5F3F4F2F5F3F4FDA
S1130E90F9012081422F440F440F440F29853A85DC
S1130EA02E5F3F4FF9012081229526952770240F4C
S1130EB0FC01208380EF90E029853A852E5F3F4F27
S1130EC0F9012081220F220F220FFC0120838FEED3
S1130ED090E02FEE30E0F90120812061FC012083B5
S1130EE030C083EF90E029853A852E5F3F4F2F5F16
S1130EF03F4FF9012081422F4295440F407E2985BE
S1130F003A852E5F3F4FF901208126952695269537
S1130F10240FFC01208382EF90E029853A852E5F1F
S1130F203F4FF90120812295220F207EFC0120836E
S1130F308FEE90E02FEE30E0F90120812F7EFC014E
S1130F4020838FEF9FEFDC018D839E83AF83B8876F
S1130F5027EF30E0CE0105960396FC018081482FEF
S1130F60440F440F440FCE0105960296FC01808184
S1130F70829586958770840FF901808326EF30E08F
S1130F80CE0105960296FC018081482F440F440F40
S1130F90440FCE0105960196FC01808182958695C9
S1130FA08770840FF901808325EF30E0CE01059628
S1130FB00196FC018081482F440F440F440FCE0159
S1130FC00596FC018081829586958770840FF901CE
S1130FD0808384EF90E09E012B5F3F4FF9012081D5
S1130FE0220F220F220FFC0120838FEE90E02FEEC0
S1130FF030E0F901408129853A85F9012681242BC5
S1131000FC01208384EF90E024EF30E0F90120819B
S11310102B7FFC01208384EF90E024EF30E0F90182
S113102020812160FC0120838FEE90E02FEE30E0E0
S1131030F90120812F73FC0120838FEE90E02FEEC5
S113104030E0F90120812068FC0120838CC489856B
S11310509A85FC018385882309F469C083EF90E0B5
S113106029853A852E5F3F4F2D5F3F4FF90120813F
S1131070422F440F440F440F29853A852E5F3F4F7A
S11310802E5F3F4FF9012081229526952770240F6A
S1131090FC01208382EF90E029853A852E5F3F4F43
S11310A02E5F3F4FF9012081422F440F440F440F1C
S11310B029853A852E5F3F4F2F5F3F4FF9012081ED
S11310C0229526952770240FFC01208381EF90E060
S11310D029853A852E5F3F4F2F5F3F4FF9012081CD
S11310E0422F440F440F440F29853A852E5F3F4F0A
S11310F0F9012081229526952770240FFC01208375
S113110080EF90E029853A852E5F3F4FF9012081D9
S1131110220F220F220FFC0120838FEE90E02FEE8E
S113112030E0F90120812061FC01208330C083EF8D
S113113090E029853A852E5F3F4F2F5F3F4FF9019D
S11311402081422F4295440F407E29853A852E5FA7
S11311503F4FF9012081269526952695240FFC0101
S1131160208382EF90E029853A852E5F3F4FF90175
S113117020812295220F207EFC0120838FEE90E0B7
S11311802FEE30E0F90120812F7EFC0120838FEFC8
S11311909FEFDC018D839E83AF83B88727EF30E018
S11311A0CE0105960396FC018081482F440F440F1D
S11311B0440FCE0105960296FC01808182958695A6
S11311C08770840FF901808326EF30E0CE01059605
S11311D00296FC018081482F440F440F440FCE0136
S11311E005960196FC018081829586958770840F0F
S11311F0F901808325EF30E0CE0105960196FC01CC
S11312008081482F440F440F440FCE010596FC0102
S11312108081829586958770840FF901808384EF9D
S113122090E09E012B5F3F4FF9012081220F220F96
S1131230220FFC0120838FEE90E02FEE30E0F901C5
S1131240408129853A85F9012681242BFC012083DC
S113125089859A85FC01128684EF90E024EF30E0C2
S1131260F90120812460FC01208380EF90E020EFCD
S113127030E0F90120812B7FFC01208384EF90E092
S113128024EF30E0F90120812160FC0120838FEEFE
S113129090E02FEE30E0F90120812F73FC012083D0
S11312A08FEE90E02FEE30E0F90120812068FC0100
S11312B0208359C389859A85FC018385882309F491
S11312C069C083EF90E029853A852E5F3F4F2D5FFB
S11312D03F4FF9012081422F440F440F440F2985C9
S11312E03A852E5F3F4F2E5F3F4FF90120812295B3
S11312F026952770240FFC01208382EF90E0298536
S11313003A852E5F3F4F2E5F3F4FF9012081422FD8
S1131310440F440F440F29853A852E5F3F4F2F5FBA
S11313203F4FF9012081229526952770240FFC0157
S1131330208381EF90E029853A852E5F3F4F2F5F10
S11313403F4FF9012081422F440F440F440F298558
S11313503A852E5F3F4FF90120812295269527700B
S1131360240FFC01208380EF90E029853A852E5FCD
S11313703F4FF9012081220F220F220FFC0120830D
S11313808FEE90E02FEE30E0F90120812061FC0126
S1131390208330C083EF90E029853A852E5F3F4F4C
S11313A02F5F3F4FF9012081422F4295440F407E29
S11313B029853A852E5F3F4FF90120812695269590
S11313C02695240FFC01208382EF90E029853A853D
S11313D02E5F3F4FF90120812295220F207EFC01D0
S11313E020838FEE90E02FEE30E0F90120812F7EF4
S11313F0FC0120838FEF9FEFDC018D839E83AF83FD
S1131400B88727EF30E0CE0105960396FC01808172
S1131410482F440F440F440FCE0105960296FC0159
S11314208081829586958770840FF901808326EFE9
S113143030E0CE0105960296FC018081482F440FCE
S1131440440F440FCE0105960196FC0180818295DC
S113145086958770840FF901808325EF30E0CE01F3
S113146005960196FC018081482F440F440F440FD8
S1131470CE010596FC018081829586958770840F44
S1131480F901808384EF90E09E012B5F3F4FF901C7
S11314902081220F220F220FFC0120838FEE90E087
S11314A02FEE30E0F901408129853A85F901268142
S11314B0242BFC01208389859A8521E0FC01228765
S11314C084EF90E024EF30E0F90120812460FC01F6
S11314D0208380EF90E020EF30E0F9012081246048
S11314E0FC0120838FEE90E02FEE30E0F9012081A3
S11314F02F7DFC01208384EF90E024EF30E0F9019C
S113150020812160FC0120838FEE90E02FEE30E0FB
S1131510F90120812F73FC0120838FEE90E02FEEE0
S113152030E0F90120812068FC0120831CC219826B
S113153013C08AEF90E029853A85F90147815085E7
S11315402981222F30E0240F351FF9012081FC016D
S1131550208389818F5F898389859A85FC0196819F
S11315608981891730F31D821E821F82188627EF16
S113157030E0CE0105960396FC018081482F440F8C
S1131580440F440FCE0105960296FC01808182959A
S113159086958770840FF901808326EF30E0CE01B1
S11315A005960296FC018081482F440F440F440F96
S11315B0CE0105960196FC018081829586958770FF
S11315C0840FF901808325EF30E0CE010596019662
S11315D0FC018081482F440F440F440FCE0105962F
S11315E0FC018081829586958770840FF901808340
S11315F084EF90E09E012B5F3F4FF9012081220F81
S1131600220F220FFC0120838FEE90E02FEE30E0BA
S1131610F901408129853A85F9012681242BFC01B1
S1131620208389859A8521E0FC01228784EF90E05C
S113163024EF30E0F90120812460FC01208380EF55
S113164090E020EF30E0F90120812460FC01208348
S11316508FEE90E02FEE30E0F90120812062FC0152
S1131660208384EF90E024EF30E0F90120812E7F85
S1131670FC0120838FEE90E02FEE30E0F901208111
S11316802F73FC0120838FEE90E02FEE30E0F90100
S113169020812068FC01208366C189859A85FC012C
S11316A08385882309F469C083EF90E029853A850E
S11316B02E5F3F4F2D5F3F4FF9012081422F440F92
S11316C0440F440F29853A852E5F3F4F2E5F3F4FCD
S11316D0F9012081229526952770240FFC0120838F
S11316E082EF90E029853A852E5F3F4F2E5F3F4F72
S11316F0F9012081422F440F440F440F29853A8574
S11317002E5F3F4F2F5F3F4FF90120812295269591
S11317102770240FFC01208381EF90E029853A850E
S11317202E5F3F4F2F5F3F4FF9012081422F440F1F
S1131730440F440F29853A852E5F3F4FF9012081DC
S1131740229526952770240FFC01208380EF90E0DA
S113175029853A852E5F3F4FF9012081220F220F00
S1131760220FFC0120838FEE90E02FEE30E0F90190
S113177020812061FC01208330C083EF90E0298523
S11317803A852E5F3F4F2F5F3F4FF9012081422F53
S11317904295440F407E29853A852E5F3F4FF901DB
S11317A02081269526952695240FFC01208382EF1F
S11317B090E029853A852E5F3F4FF90120812295DB
S11317C0220F207EFC0120838FEE90E02FEE30E08C
S11317D0F90120812F7EFC012083198213C08AEF36
S11317E090E029853A85F901478150852981222F86
S11317F030E0240F351FF9012081FC012083898109
S11318008F5F898389859A85FC01968189818917EF
S113181030F38FEF9FEFDC018D839E83AF83B88716
S113182027EF30E0CE0105960396FC018081482F16
S1131830440F440F440FCE0105960296FC018081AB
S1131840829586958770840FF901808326EF30E0B6
S1131850CE0105960296FC018081482F440F440F67
S1131860440FCE0105960196FC01808182958695F0
S11318708770840FF901808325EF30E0CE0105964F
S11318800196FC018081482F440F440F440FCE0180
S11318900596FC018081829586958770840FF901F5
S11318A0808384EF90E09E012B5F3F4FF9012081FC
S11318B0220F220F220FFC0120838FEE90E02FEEE7
S11318C030E0F901408129853A85F9012681242BEC
S11318D0FC01208389859A8521E0FC01228784EF1D
S11318E090E024EF30E0F90120812460FC012083A2
S11318F080EF90E020EF30E0F90120812460FC01CA
S113190020838FEE90E02FEE30E0F90120812062F9
S1131910FC01208384EF90E024EF30E0F901208182
S11319202160FC0120838FEE90E02FEE30E0F9017E
S113193020812F73FC0120838FEE90E02FEE30E0A6
S1131940F90120812068FC0120830DC089859A85D6
S1131950FC011186000007C089859A852FE1FC01EE
S113196021878FEF01C080E02A960FB6F894DEBF7E
S11319700FBECDBFDF91CF910895CF93DF9300D0F9
S113198000D0CDB7DEB79C838B838B819C81FC0117
S113199081858A838A81882331F08A818F3119F085
S11319A08A818F3F11F482E014C18DEE90E02B8187
S11319B03C81F90120812295207FFC0120830E9433
S11319C08A018A838A81882F90E08032910589F088
S11319D0813291051CF4892B49F0E5C080349105CE
S11319E009F4CDC0803A910521F0DDC081E08983FE
S11319F0EFC08FEE90E0FC018081282F2F708B8147
S1131A009C81FC0126838B819C81FC0187819085CC
S1131A100E94BC0180EF90E0FC018081882F90E05F
S1131A2084709927959587959595879521E0892BBD
S1131A3009F420E08B819C81FC0122878FEE90E0E9
S1131A40FC018081882F90E0807199279595879576
S1131A50959587959595879595958795892B09F4FF
S1131A6054C08B819C8121E0FC0123878B819C8164
S1131A700296039623EF30E0F901208126952695FE
S1131A802695FC0120838B819C810296029622EF8D
S1131A9030E0F9012081422F46954695469523EF83
S1131AA030E0F90120812295220F207E240FFC01D1
S1131AB020838B819C810296019621EF30E0F9010D
S1131AC02081422F46954695469522EF30E0F90154
S1131AD020812295220F207E240FFC0120838B81FC
S1131AE09C81029620EF30E0F9012081422F469537
S1131AF04695469521EF30E0F90120812295220F89
S1131B00207E240FFC01208326C08B819C81FC0154
S1131B1013868B819C810296019623EF30E0F901B4
S1131B202081229526952770FC0120838B819C813E
S1131B30029622EF30E0F9012081422F429546952A
S1131B40477023EF30E0F9012081220F220F220F8A
S1131B50240FFC0120838B819C812A81FC01218735
S1131B608FEE90E02FEE30E0F90120812F73FC011D
S1131B7020838EEE90E0FC011082198229C08B81B3
S1131B809C812A81FC0121878FEE90E02FEE30E0CA
S1131B90F90120812F73FC0120838EEE90E0FC017B
S1131BA01082198215C08B819C812A81FC012187B6
S1131BB08FEE90E02FEE30E0F90120812F73FC01CD
S1131BC020838EEE90E0FC01108282E08983000085
S1131BD089810F900F900F900F90DF91CF9108950E
S1131BE0CF93DF9300D0CDB7DEB79A838983898101
S1131BF00F900F90DF91CF910895CF93DF9300D092
S1131C00CDB7DEB79A83898389819A81892F9927F1
S1131C100F900F90DF91CF910895CF93DF9300D071
S1131C20CDB7DEB780E098E40E94A00F9A83898341
S1131C3089819A810E94FD0D883231F089819A81CF
S1131C400E94FD0D8E3229F489819A810E94F00D43
S1131C5001C080E00F900F90DF91CF910895CF9352
S1131C60DF9300D0CDB7DEB71A82198280E098E7FF
S1131C700E94A00F9A83898389819A818F3728E2F1
S1131C80920761F08F3F28E2920721F08535984250
S1131C9019F006C081E005C082E003C083E001C002
S1131CA080E00F900F90DF91CF910895CF93DF9351
S1131CB000D0CDB7DEB71A8219828DE996E50E946D
S1131CC0A00F9A83898300000F900F90DF91CF912A
S1131CD00895CF93DF9300D0CDB7DEB79A8389837D
S1131CE089819A819C0140E050E088E893E1DC011D
S1131CF00E94D811DC01CB01072E7AE0B695A79596
S1131D00979587957A95D1F7702D0F900F90DF9165
S1131D10CF910895CF93DF93CDB7DEB760970FB619
S1131D20F894DEBF0FBECDBF0E94F50E0E9468007E
S1131D300E94740F81E00E940A0280E891E0A0E012
S1131D40B0E08F839887A987BA8781E0888B1F8644
S1131D5081E08B8782E08E830000CE0105960E948D
S1131D6027028823D1F70000CE0105960E94BD0CFE
S1131D708130D1F30E941B010E94690E9C01C901AC
S1131D80880F991F880F991F820F931F90930B013F
S1131D9080930A010E9410010E94690E90930D0124
S1131DA080930C010E940D0E8A8303C00E942F0EA3
S1131DB0898389818130D1F70E94560E0E94FA00EE
S1131DC00E94690E90930101809300010E94050115
S1131DD00E94690E90930301809302010E94210FD7
S1131DE08AE090E09C838B83FFCFCF93DF93CDB7C2
S1131DF0DEB784E290E024E230E0F901208120663D
S1131E00FC01208385E290E025E230E0F9012081A5
S1131E102066FC01208387E290E027E230E0F901AC
S1131E2020812068FC01208388E290E028E230E0F1
S1131E30F90120812068FC0120830000DF91CF910B
S1131E400895CF93DF93CDB7DEB7809104019091CD
S1131E5005019C018091000190910101A901481B99
S1131E60590BCA01092E000CAA0BBB0BBC01CD01F6
S1131E700E94B710DC01CB012AE939E947EF53E4AA
S1131E80BC01CD010E940D10DC01CB0120E030E04B
S1131E904AE754E4BC01CD010E944311DC01CB01AB
S1131EA0BC01CD010E947F10DC01CB01909309019C
S1131EB0809308010000DF91CF910895CF93DF93C1
S1131EC000D0CDB7DEB789836A838981882F90E0FB
S1131ED0382F22278A81882F90E0822B932B0F9012
S1131EE00F90DF91CF910895CF93DF93CDB7DEB7F5
S1131EF084E290E024E230E0F90120812268FC01D0
S1131F0020838AE290E02AE230E0F9012081206215
S1131F10FC0120838BE290E02BE230E0F901208188
S1131F202062FC0120838CE490E02CE430E0F90191
S1131F3020812565FC0120830000DF91CF91089565
S1131F40CF93DF9300D000D0CDB7DEB79C838B83D3
S1131F508BE290E02BE230E0F90120812F7DFC013F
S1131F6020838EE490E02B813C81232F3327FC01D6
S1131F70208300008DE490E0FC0180818823D4F765
S1131F808EE490E0FC018081898389818F73898349
S1131F908EE490E02B81FC01208300008DE490E02E
S1131FA0FC0180818823D4F78EE490E0FC018081D9
S1131FB08A838BE290E02BE230E0F90120812062F9
S1131FC0FC0120836A8189810E945E0F0F900F902B
S1131FD00F900F90DF91CF9108951F920F92009070
S1131FE05F000F9211248F939F93CF93DF93CDB70C
S1131FF0DEB780910E0190910F01019690930F012D
S113200080930E010000DF91CF919F918F910F90EB
S113201000925F000F901F9018950E9421100C945D
S113202009110E94021158F00E94FB1040F029F49B
S11320305F3F29F00C94F21051110C943D110C9453
S1132040F8100E941A1168F39923B1F3552391F300
S1132050951B550BBB27AA2762177307840738F013
S11320609F5F5F4F220F331F441FAA1FA9F335D070
S11320700E2E3AF0E0E832D091505040E695001C24
S1132080CAF72BD0FE2F29D0660F771F881FBB1FDE
S1132090261737074807AB07B0E809F0BB0B802DBC
S11320A0BF01FF2793585F4F3AF09E3F510578F0E8
S11320B00C94F2100C943D115F3FE4F3983ED4F37A
S11320C0869577956795B795F7959F5FC9F7880FBC
S11320D0911D9695879597F90895E1E0660F771F0E
S11320E0881FBB1F621773078407BA0720F0621B9F
S11320F0730B840BBA0BEE1F88F7E09508950E94CA
S113210086106894B1110C943D1108950E94221117
S113211088F09F5798F0B92F9927B751B0F0E1F0A4
S1132120660F771F881F991F1AF0BA95C9F714C054
S1132130B13091F00E943C11B1E008950C943C112F
S1132140672F782F8827B85F39F0B93FCCF386958D
S113215077956795B395D9F73EF4909580957095EA
S113216061957F4F8F4F9F4F0895E89409C097FB67
S11321703EF490958095709561957F4F8F4F9F4F5A
S11321809923A9F0F92F96E9BB279395F69587959E
S113219077956795B795F111F8CFFAF4BB0F11F461
S11321A060FF1BC06F5F7F4F8F4F9F4F16C0882308
S11321B011F096E911C0772321F09EE8872F762F3E
S11321C005C0662371F096E8862F70E060E02AF07F
S11321D09A95660F771F881FDAF7880F969587956B
S11321E097F9089597F99F6780E870E060E0089593
S11321F09FEF80EC089500240A941616170618061B
S11322000906089500240A941216130614060506F6
S11322100895092E0394000C11F4882352F0BB0F87
S113222040F4BF2B11F460FF04C06F5F7F4F8F4FEA
S11322309F4F089557FD9058440F551F59F05F3F25
S113224071F04795880F97FB991F61F09F3F79F0D4
S113225087950895121613061406551FF2CF469556
S1132260F1DF08C0161617061806991FF1CF8695D8
S11322707105610508940895E894BB2766277727BC
S1132280CB0197F908950E9456110C9409110E94EC
S1132290FB1038F00E94021120F0952311F00C94E9
S11322A0F2100C94F81011240C943D110E941A1190
S11322B070F3959FC1F3950F50E0551F629FF00195
S11322C0729FBB27F00DB11D639FAA27F00DB11DAE
S11322D0AA1F649F6627B00DA11D661F829F222737
S11322E0B00DA11D621F739FB00DA11D621F839FBE
S11322F0A00D611D221F749F3327A00D611D231F94
S1132300849F600D211D822F762F6A2F11249F57E1
S113231050409AF0F1F088234AF0EE0FFF1FBB1FE4
S1132320661F771F881F91505040A9F79E3F5105A3
S113233080F00C94F2100C943D115F3FE4F3983E4E
S1132340D4F3869577956795B795F795E7959F5F4D
S1132350C1F7FE2B880F911D9695879597F90895DF
S1132360A1E21A2EAA1BBB1BFD010DC0AA1FBB1F95
S1132370EE1FFF1FA217B307E407F50720F0A21B07
S1132380B30BE40BF50B661F771F881F991F1A9474
S113239069F760957095809590959B01AC01BD019E
S11323A0CF010895EE0FFF1F0590F491E02D0994DD
S11323B00E94E311A59F900DB49F900DA49F800DE2
S11323C0911D11240895A29FB001B39FC001A39F42
S11323D0700D811D1124911DB29F700D811D11245A
S10B23E0911D0895F894FFCF4C
S9030000FC
